{
	"GRADES/grades.sol": {
		"grades": {
			"abi": [
				{
					"inputs": [],
					"stateMutability": "nonpayable",
					"type": "constructor"
				},
				{
					"anonymous": false,
					"inputs": [
						{
							"indexed": false,
							"internalType": "string",
							"name": "",
							"type": "string"
						}
					],
					"name": "ask_revision",
					"type": "event"
				},
				{
					"anonymous": false,
					"inputs": [
						{
							"indexed": false,
							"internalType": "bytes32",
							"name": "",
							"type": "bytes32"
						},
						{
							"indexed": false,
							"internalType": "uint8",
							"name": "",
							"type": "uint8"
						}
					],
					"name": "student_evaluated",
					"type": "event"
				},
				{
					"inputs": [
						{
							"internalType": "string",
							"name": "_idStudent",
							"type": "string"
						}
					],
					"name": "AskRevision",
					"outputs": [],
					"stateMutability": "nonpayable",
					"type": "function"
				},
				{
					"inputs": [
						{
							"internalType": "string",
							"name": "_idStudent",
							"type": "string"
						}
					],
					"name": "CheckGrades",
					"outputs": [
						{
							"internalType": "uint8",
							"name": "",
							"type": "uint8"
						}
					],
					"stateMutability": "view",
					"type": "function"
				},
				{
					"inputs": [
						{
							"internalType": "string",
							"name": "_idStudent",
							"type": "string"
						},
						{
							"internalType": "uint8",
							"name": "_grade",
							"type": "uint8"
						}
					],
					"name": "Evaluate",
					"outputs": [],
					"stateMutability": "nonpayable",
					"type": "function"
				},
				{
					"inputs": [],
					"name": "ShowAskedRevisions",
					"outputs": [
						{
							"internalType": "string[]",
							"name": "",
							"type": "string[]"
						}
					],
					"stateMutability": "view",
					"type": "function"
				},
				{
					"inputs": [],
					"name": "professor",
					"outputs": [
						{
							"internalType": "address",
							"name": "",
							"type": "address"
						}
					],
					"stateMutability": "view",
					"type": "function"
				}
			],
			"devdoc": {
				"kind": "dev",
				"methods": {},
				"version": 1
			},
			"evm": {
				"assembly": "    /* \"GRADES/grades.sol\":58:2359  contract grades{... */\n  mstore(0x40, 0x80)\n    /* \"GRADES/grades.sol\":195:247  constructor(){... */\n  callvalue\n  dup1\n  iszero\n  tag_1\n  jumpi\n  0x00\n  dup1\n  revert\ntag_1:\n  pop\n    /* \"GRADES/grades.sol\":230:240  msg.sender */\n  caller\n    /* \"GRADES/grades.sol\":218:227  professor */\n  0x00\n  dup1\n    /* \"GRADES/grades.sol\":218:240  professor = msg.sender */\n  0x0100\n  exp\n  dup2\n  sload\n  dup2\n  0xffffffffffffffffffffffffffffffffffffffff\n  mul\n  not\n  and\n  swap1\n  dup4\n  0xffffffffffffffffffffffffffffffffffffffff\n  and\n  mul\n  or\n  swap1\n  sstore\n  pop\n    /* \"GRADES/grades.sol\":58:2359  contract grades{... */\n  dataSize(sub_0)\n  dup1\n  dataOffset(sub_0)\n  0x00\n  codecopy\n  0x00\n  return\nstop\n\nsub_0: assembly {\n        /* \"GRADES/grades.sol\":58:2359  contract grades{... */\n      mstore(0x40, 0x80)\n      callvalue\n      dup1\n      iszero\n      tag_1\n      jumpi\n      0x00\n      dup1\n      revert\n    tag_1:\n      pop\n      jumpi(tag_2, lt(calldatasize, 0x04))\n      shr(0xe0, calldataload(0x00))\n      dup1\n      0x309e1bc5\n      eq\n      tag_3\n      jumpi\n      dup1\n      0x3590fb2a\n      eq\n      tag_4\n      jumpi\n      dup1\n      0x35d2db97\n      eq\n      tag_5\n      jumpi\n      dup1\n      0x5113940d\n      eq\n      tag_6\n      jumpi\n      dup1\n      0xb7406849\n      eq\n      tag_7\n      jumpi\n    tag_2:\n      0x00\n      dup1\n      revert\n        /* \"GRADES/grades.sol\":883:1140  function Evaluate(string memory _idStudent, uint8 _grade) external  OnlyProfessor(msg.sender){... */\n    tag_3:\n      tag_8\n      0x04\n      dup1\n      calldatasize\n      sub\n      dup2\n      add\n      swap1\n      tag_9\n      swap2\n      swap1\n      tag_10\n      jump\t// in\n    tag_9:\n      tag_11\n      jump\t// in\n    tag_8:\n      stop\n        /* \"GRADES/grades.sol\":1178:1472  function CheckGrades(string memory _idStudent) external view returns(uint8){... */\n    tag_4:\n      tag_12\n      0x04\n      dup1\n      calldatasize\n      sub\n      dup2\n      add\n      swap1\n      tag_13\n      swap2\n      swap1\n      tag_14\n      jump\t// in\n    tag_13:\n      tag_15\n      jump\t// in\n    tag_12:\n      mload(0x40)\n      tag_16\n      swap2\n      swap1\n      tag_17\n      jump\t// in\n    tag_16:\n      mload(0x40)\n      dup1\n      swap2\n      sub\n      swap1\n      return\n        /* \"GRADES/grades.sol\":1950:2249  function AskRevision(string memory _idStudent) external{... */\n    tag_5:\n      tag_18\n      0x04\n      dup1\n      calldatasize\n      sub\n      dup2\n      add\n      swap1\n      tag_19\n      swap2\n      swap1\n      tag_14\n      jump\t// in\n    tag_19:\n      tag_20\n      jump\t// in\n    tag_18:\n      stop\n        /* \"GRADES/grades.sol\":112:136  address public professor */\n    tag_6:\n      tag_21\n      tag_22\n      jump\t// in\n    tag_21:\n      mload(0x40)\n      tag_23\n      swap2\n      swap1\n      tag_24\n      jump\t// in\n    tag_23:\n      mload(0x40)\n      dup1\n      swap2\n      sub\n      swap1\n      return\n        /* \"GRADES/grades.sol\":2255:2356  function ShowAskedRevisions() external view returns(string[] memory){... */\n    tag_7:\n      tag_25\n      tag_26\n      jump\t// in\n    tag_25:\n      mload(0x40)\n      tag_27\n      swap2\n      swap1\n      tag_28\n      jump\t// in\n    tag_27:\n      mload(0x40)\n      dup1\n      swap2\n      sub\n      swap1\n      return\n        /* \"GRADES/grades.sol\":883:1140  function Evaluate(string memory _idStudent, uint8 _grade) external  OnlyProfessor(msg.sender){... */\n    tag_11:\n        /* \"GRADES/grades.sol\":965:975  msg.sender */\n      caller\n        /* \"GRADES/grades.sol\":598:605  _sender */\n      dup1\n        /* \"GRADES/grades.sol\":585:605  professor == _sender */\n      0xffffffffffffffffffffffffffffffffffffffff\n      and\n        /* \"GRADES/grades.sol\":585:594  professor */\n      0x00\n      dup1\n      sload\n      swap1\n      0x0100\n      exp\n      swap1\n      div\n      0xffffffffffffffffffffffffffffffffffffffff\n      and\n        /* \"GRADES/grades.sol\":585:605  professor == _sender */\n      0xffffffffffffffffffffffffffffffffffffffff\n      and\n      eq\n        /* \"GRADES/grades.sol\":577:636  require(professor == _sender,\"You don't have permissions.\") */\n      tag_30\n      jumpi\n      mload(0x40)\n      0x08c379a000000000000000000000000000000000000000000000000000000000\n      dup2\n      mstore\n      0x04\n      add\n      tag_31\n      swap1\n      tag_32\n      jump\t// in\n    tag_31:\n      mload(0x40)\n      dup1\n      swap2\n      sub\n      swap1\n      revert\n    tag_30:\n        /* \"GRADES/grades.sol\":986:1008  bytes32 hash_idStudent */\n      0x00\n        /* \"GRADES/grades.sol\":1011:1037  getHashStudent(_idStudent) */\n      tag_34\n        /* \"GRADES/grades.sol\":1026:1036  _idStudent */\n      dup5\n        /* \"GRADES/grades.sol\":1011:1025  getHashStudent */\n      tag_35\n        /* \"GRADES/grades.sol\":1011:1037  getHashStudent(_idStudent) */\n      jump\t// in\n    tag_34:\n        /* \"GRADES/grades.sol\":986:1037  bytes32 hash_idStudent = getHashStudent(_idStudent) */\n      swap1\n      pop\n        /* \"GRADES/grades.sol\":1072:1078  _grade */\n      dup3\n        /* \"GRADES/grades.sol\":1047:1053  Grades */\n      0x01\n        /* \"GRADES/grades.sol\":1047:1069  Grades[hash_idStudent] */\n      0x00\n        /* \"GRADES/grades.sol\":1054:1068  hash_idStudent */\n      dup4\n        /* \"GRADES/grades.sol\":1047:1069  Grades[hash_idStudent] */\n      dup2\n      mstore\n      0x20\n      add\n      swap1\n      dup2\n      mstore\n      0x20\n      add\n      0x00\n      keccak256\n      0x00\n        /* \"GRADES/grades.sol\":1047:1078  Grades[hash_idStudent] = _grade */\n      0x0100\n      exp\n      dup2\n      sload\n      dup2\n      0xff\n      mul\n      not\n      and\n      swap1\n      dup4\n      0xff\n      and\n      mul\n      or\n      swap1\n      sstore\n      pop\n        /* \"GRADES/grades.sol\":1093:1133  student_evaluated(hash_idStudent,_grade) */\n      0xa1f852c5e000ff00ac0025fe2e85eb386d5ff468a706a63d7d1bc9979af42cb9\n        /* \"GRADES/grades.sol\":1111:1125  hash_idStudent */\n      dup2\n        /* \"GRADES/grades.sol\":1126:1132  _grade */\n      dup5\n        /* \"GRADES/grades.sol\":1093:1133  student_evaluated(hash_idStudent,_grade) */\n      mload(0x40)\n      tag_36\n      swap3\n      swap2\n      swap1\n      tag_37\n      jump\t// in\n    tag_36:\n      mload(0x40)\n      dup1\n      swap2\n      sub\n      swap1\n      log1\n        /* \"GRADES/grades.sol\":976:1140  {... */\n      pop\n        /* \"GRADES/grades.sol\":883:1140  function Evaluate(string memory _idStudent, uint8 _grade) external  OnlyProfessor(msg.sender){... */\n      pop\n      pop\n      pop\n      jump\t// out\n        /* \"GRADES/grades.sol\":1178:1472  function CheckGrades(string memory _idStudent) external view returns(uint8){... */\n    tag_15:\n        /* \"GRADES/grades.sol\":1247:1252  uint8 */\n      0x00\n        /* \"GRADES/grades.sol\":1263:1285  bytes32 hash_idStudent */\n      dup1\n        /* \"GRADES/grades.sol\":1288:1314  getHashStudent(_idStudent) */\n      tag_39\n        /* \"GRADES/grades.sol\":1303:1313  _idStudent */\n      dup4\n        /* \"GRADES/grades.sol\":1288:1302  getHashStudent */\n      tag_35\n        /* \"GRADES/grades.sol\":1288:1314  getHashStudent(_idStudent) */\n      jump\t// in\n    tag_39:\n        /* \"GRADES/grades.sol\":1263:1314  bytes32 hash_idStudent = getHashStudent(_idStudent) */\n      swap1\n      pop\n        /* \"GRADES/grades.sol\":1356:1357  0 */\n      0x00\n        /* \"GRADES/grades.sol\":1332:1338  Grades */\n      0x01\n        /* \"GRADES/grades.sol\":1332:1354  Grades[hash_idStudent] */\n      0x00\n        /* \"GRADES/grades.sol\":1339:1353  hash_idStudent */\n      dup4\n        /* \"GRADES/grades.sol\":1332:1354  Grades[hash_idStudent] */\n      dup2\n      mstore\n      0x20\n      add\n      swap1\n      dup2\n      mstore\n      0x20\n      add\n      0x00\n      keccak256\n      0x00\n      swap1\n      sload\n      swap1\n      0x0100\n      exp\n      swap1\n      div\n      0xff\n      and\n        /* \"GRADES/grades.sol\":1332:1357  Grades[hash_idStudent]!=0 */\n      0xff\n      and\n      sub\n        /* \"GRADES/grades.sol\":1324:1383  require(Grades[hash_idStudent]!=0,\"Student doesn't exists\") */\n      tag_40\n      jumpi\n      mload(0x40)\n      0x08c379a000000000000000000000000000000000000000000000000000000000\n      dup2\n      mstore\n      0x04\n      add\n      tag_41\n      swap1\n      tag_42\n      jump\t// in\n    tag_41:\n      mload(0x40)\n      dup1\n      swap2\n      sub\n      swap1\n      revert\n    tag_40:\n        /* \"GRADES/grades.sol\":1393:1411  uint8 studentGrade */\n      0x00\n        /* \"GRADES/grades.sol\":1414:1420  Grades */\n      0x01\n        /* \"GRADES/grades.sol\":1414:1436  Grades[hash_idStudent] */\n      0x00\n        /* \"GRADES/grades.sol\":1421:1435  hash_idStudent */\n      dup4\n        /* \"GRADES/grades.sol\":1414:1436  Grades[hash_idStudent] */\n      dup2\n      mstore\n      0x20\n      add\n      swap1\n      dup2\n      mstore\n      0x20\n      add\n      0x00\n      keccak256\n      0x00\n      swap1\n      sload\n      swap1\n      0x0100\n      exp\n      swap1\n      div\n      0xff\n      and\n        /* \"GRADES/grades.sol\":1393:1436  uint8 studentGrade = Grades[hash_idStudent] */\n      swap1\n      pop\n        /* \"GRADES/grades.sol\":1453:1465  studentGrade */\n      dup1\n        /* \"GRADES/grades.sol\":1446:1465  return studentGrade */\n      swap3\n      pop\n      pop\n      pop\n        /* \"GRADES/grades.sol\":1178:1472  function CheckGrades(string memory _idStudent) external view returns(uint8){... */\n      swap2\n      swap1\n      pop\n      jump\t// out\n        /* \"GRADES/grades.sol\":1950:2249  function AskRevision(string memory _idStudent) external{... */\n    tag_20:\n        /* \"GRADES/grades.sol\":2059:2060  0 */\n      0x00\n        /* \"GRADES/grades.sol\":2023:2029  Grades */\n      0x01\n        /* \"GRADES/grades.sol\":2023:2057  Grades[getHashStudent(_idStudent)] */\n      0x00\n        /* \"GRADES/grades.sol\":2030:2056  getHashStudent(_idStudent) */\n      tag_44\n        /* \"GRADES/grades.sol\":2045:2055  _idStudent */\n      dup5\n        /* \"GRADES/grades.sol\":2030:2044  getHashStudent */\n      tag_35\n        /* \"GRADES/grades.sol\":2030:2056  getHashStudent(_idStudent) */\n      jump\t// in\n    tag_44:\n        /* \"GRADES/grades.sol\":2023:2057  Grades[getHashStudent(_idStudent)] */\n      dup2\n      mstore\n      0x20\n      add\n      swap1\n      dup2\n      mstore\n      0x20\n      add\n      0x00\n      keccak256\n      0x00\n      swap1\n      sload\n      swap1\n      0x0100\n      exp\n      swap1\n      div\n      0xff\n      and\n        /* \"GRADES/grades.sol\":2023:2060  Grades[getHashStudent(_idStudent)]!=0 */\n      0xff\n      and\n      sub\n        /* \"GRADES/grades.sol\":2015:2086  require(Grades[getHashStudent(_idStudent)]!=0,\"Student doesn't exists\") */\n      tag_45\n      jumpi\n      mload(0x40)\n      0x08c379a000000000000000000000000000000000000000000000000000000000\n      dup2\n      mstore\n      0x04\n      add\n      tag_46\n      swap1\n      tag_42\n      jump\t// in\n    tag_46:\n      mload(0x40)\n      dup1\n      swap2\n      sub\n      swap1\n      revert\n    tag_45:\n        /* \"GRADES/grades.sol\":2105:2133  isInRevisionList(_idStudent) */\n      tag_47\n        /* \"GRADES/grades.sol\":2122:2132  _idStudent */\n      dup2\n        /* \"GRADES/grades.sol\":2105:2121  isInRevisionList */\n      tag_48\n        /* \"GRADES/grades.sol\":2105:2133  isInRevisionList(_idStudent) */\n      jump\t// in\n    tag_47:\n        /* \"GRADES/grades.sol\":2104:2133  !isInRevisionList(_idStudent) */\n      iszero\n        /* \"GRADES/grades.sol\":2096:2167  require(!isInRevisionList(_idStudent),\"Student is already on the list\") */\n      tag_49\n      jumpi\n      mload(0x40)\n      0x08c379a000000000000000000000000000000000000000000000000000000000\n      dup2\n      mstore\n      0x04\n      add\n      tag_50\n      swap1\n      tag_51\n      jump\t// in\n    tag_50:\n      mload(0x40)\n      dup1\n      swap2\n      sub\n      swap1\n      revert\n    tag_49:\n        /* \"GRADES/grades.sol\":2177:2186  revisions */\n      0x02\n        /* \"GRADES/grades.sol\":2192:2202  _idStudent */\n      dup2\n        /* \"GRADES/grades.sol\":2177:2203  revisions.push(_idStudent) */\n      swap1\n      dup1\n      0x01\n      dup2\n      sload\n      add\n      dup1\n      dup3\n      sstore\n      dup1\n      swap2\n      pop\n      pop\n      0x01\n      swap1\n      sub\n      swap1\n      0x00\n      mstore\n      keccak256(0x00, 0x20)\n      add\n      0x00\n      swap1\n      swap2\n      swap1\n      swap2\n      swap1\n      swap2\n      pop\n      swap1\n      dup2\n      tag_53\n      swap2\n      swap1\n      tag_54\n      jump\t// in\n    tag_53:\n      pop\n        /* \"GRADES/grades.sol\":2218:2242  ask_revision(_idStudent) */\n      0xb2035f3cbc94c91fe4005d71d8e105625a4bc0f3e54c011ecebf4ee4bab0bc5f\n        /* \"GRADES/grades.sol\":2231:2241  _idStudent */\n      dup2\n        /* \"GRADES/grades.sol\":2218:2242  ask_revision(_idStudent) */\n      mload(0x40)\n      tag_55\n      swap2\n      swap1\n      tag_56\n      jump\t// in\n    tag_55:\n      mload(0x40)\n      dup1\n      swap2\n      sub\n      swap1\n      log1\n        /* \"GRADES/grades.sol\":1950:2249  function AskRevision(string memory _idStudent) external{... */\n      pop\n      jump\t// out\n        /* \"GRADES/grades.sol\":112:136  address public professor */\n    tag_22:\n      0x00\n      dup1\n      sload\n      swap1\n      0x0100\n      exp\n      swap1\n      div\n      0xffffffffffffffffffffffffffffffffffffffff\n      and\n      dup2\n      jump\t// out\n        /* \"GRADES/grades.sol\":2255:2356  function ShowAskedRevisions() external view returns(string[] memory){... */\n    tag_26:\n        /* \"GRADES/grades.sol\":2307:2322  string[] memory */\n      0x60\n        /* \"GRADES/grades.sol\":2340:2349  revisions */\n      0x02\n        /* \"GRADES/grades.sol\":2333:2349  return revisions */\n      dup1\n      sload\n      dup1\n      0x20\n      mul\n      0x20\n      add\n      mload(0x40)\n      swap1\n      dup2\n      add\n      0x40\n      mstore\n      dup1\n      swap3\n      swap2\n      swap1\n      dup2\n      dup2\n      mstore\n      0x20\n      add\n      0x00\n      swap1\n    tag_58:\n      dup3\n      dup3\n      lt\n      iszero\n      tag_59\n      jumpi\n      dup4\n      dup3\n      swap1\n      0x00\n      mstore\n      keccak256(0x00, 0x20)\n      add\n      dup1\n      sload\n      tag_61\n      swap1\n      tag_62\n      jump\t// in\n    tag_61:\n      dup1\n      0x1f\n      add\n      0x20\n      dup1\n      swap2\n      div\n      mul\n      0x20\n      add\n      mload(0x40)\n      swap1\n      dup2\n      add\n      0x40\n      mstore\n      dup1\n      swap3\n      swap2\n      swap1\n      dup2\n      dup2\n      mstore\n      0x20\n      add\n      dup3\n      dup1\n      sload\n      tag_63\n      swap1\n      tag_62\n      jump\t// in\n    tag_63:\n      dup1\n      iszero\n      tag_64\n      jumpi\n      dup1\n      0x1f\n      lt\n      tag_65\n      jumpi\n      0x0100\n      dup1\n      dup4\n      sload\n      div\n      mul\n      dup4\n      mstore\n      swap2\n      0x20\n      add\n      swap2\n      jump(tag_64)\n    tag_65:\n      dup3\n      add\n      swap2\n      swap1\n      0x00\n      mstore\n      keccak256(0x00, 0x20)\n      swap1\n    tag_66:\n      dup2\n      sload\n      dup2\n      mstore\n      swap1\n      0x01\n      add\n      swap1\n      0x20\n      add\n      dup1\n      dup4\n      gt\n      tag_66\n      jumpi\n      dup3\n      swap1\n      sub\n      0x1f\n      and\n      dup3\n      add\n      swap2\n    tag_64:\n      pop\n      pop\n      pop\n      pop\n      pop\n      dup2\n      mstore\n      0x20\n      add\n      swap1\n      0x01\n      add\n      swap1\n      jump(tag_58)\n    tag_59:\n      pop\n      pop\n      pop\n      pop\n      swap1\n      pop\n        /* \"GRADES/grades.sol\":2255:2356  function ShowAskedRevisions() external view returns(string[] memory){... */\n      swap1\n      jump\t// out\n        /* \"GRADES/grades.sol\":697:839  function getHashStudent(string memory _idStudent) private pure returns(bytes32){... */\n    tag_35:\n        /* \"GRADES/grades.sol\":768:775  bytes32 */\n      0x00\n        /* \"GRADES/grades.sol\":820:830  _idStudent */\n      dup2\n        /* \"GRADES/grades.sol\":803:831  abi.encodePacked(_idStudent) */\n      add(0x20, mload(0x40))\n      tag_68\n      swap2\n      swap1\n      tag_69\n      jump\t// in\n    tag_68:\n      mload(0x40)\n      0x20\n      dup2\n      dup4\n      sub\n      sub\n      dup2\n      mstore\n      swap1\n      0x40\n      mstore\n        /* \"GRADES/grades.sol\":793:832  keccak256(abi.encodePacked(_idStudent)) */\n      dup1\n      mload\n      swap1\n      0x20\n      add\n      keccak256\n        /* \"GRADES/grades.sol\":786:832  return keccak256(abi.encodePacked(_idStudent)) */\n      swap1\n      pop\n        /* \"GRADES/grades.sol\":697:839  function getHashStudent(string memory _idStudent) private pure returns(bytes32){... */\n      swap2\n      swap1\n      pop\n      jump\t// out\n        /* \"GRADES/grades.sol\":1529:1891  function isInRevisionList(string memory _idStudent) private view returns(bool){... */\n    tag_48:\n        /* \"GRADES/grades.sol\":1602:1606  bool */\n      0x00\n        /* \"GRADES/grades.sol\":1617:1626  bool flag */\n      dup1\n        /* \"GRADES/grades.sol\":1629:1634  false */\n      0x00\n        /* \"GRADES/grades.sol\":1617:1634  bool flag = false */\n      swap1\n      pop\n        /* \"GRADES/grades.sol\":1644:1650  uint i */\n      0x00\n        /* \"GRADES/grades.sol\":1664:1864  while(i<revisions.length && flag == false){... */\n    tag_71:\n        /* \"GRADES/grades.sol\":1672:1681  revisions */\n      0x02\n        /* \"GRADES/grades.sol\":1672:1688  revisions.length */\n      dup1\n      sload\n      swap1\n      pop\n        /* \"GRADES/grades.sol\":1670:1671  i */\n      dup2\n        /* \"GRADES/grades.sol\":1670:1688  i<revisions.length */\n      lt\n        /* \"GRADES/grades.sol\":1670:1705  i<revisions.length && flag == false */\n      dup1\n      iszero\n      tag_73\n      jumpi\n      pop\n        /* \"GRADES/grades.sol\":1700:1705  false */\n      0x00\n        /* \"GRADES/grades.sol\":1692:1705  flag == false */\n      iszero\n      iszero\n        /* \"GRADES/grades.sol\":1692:1696  flag */\n      dup3\n        /* \"GRADES/grades.sol\":1692:1705  flag == false */\n      iszero\n      iszero\n      eq\n        /* \"GRADES/grades.sol\":1670:1705  i<revisions.length && flag == false */\n    tag_73:\n        /* \"GRADES/grades.sol\":1664:1864  while(i<revisions.length && flag == false){... */\n      iszero\n      tag_72\n      jumpi\n        /* \"GRADES/grades.sol\":1795:1805  _idStudent */\n      dup4\n        /* \"GRADES/grades.sol\":1778:1806  abi.encodePacked(_idStudent) */\n      add(0x20, mload(0x40))\n      tag_74\n      swap2\n      swap1\n      tag_69\n      jump\t// in\n    tag_74:\n      mload(0x40)\n      0x20\n      dup2\n      dup4\n      sub\n      sub\n      dup2\n      mstore\n      swap1\n      0x40\n      mstore\n        /* \"GRADES/grades.sol\":1768:1807  keccak256(abi.encodePacked(_idStudent)) */\n      dup1\n      mload\n      swap1\n      0x20\n      add\n      keccak256\n        /* \"GRADES/grades.sol\":1750:1759  revisions */\n      0x02\n        /* \"GRADES/grades.sol\":1760:1761  i */\n      dup3\n        /* \"GRADES/grades.sol\":1750:1762  revisions[i] */\n      dup2\n      sload\n      dup2\n      lt\n      tag_75\n      jumpi\n      tag_76\n      tag_77\n      jump\t// in\n    tag_76:\n    tag_75:\n      swap1\n      0x00\n      mstore\n      keccak256(0x00, 0x20)\n      add\n        /* \"GRADES/grades.sol\":1733:1763  abi.encodePacked(revisions[i]) */\n      add(0x20, mload(0x40))\n      tag_79\n      swap2\n      swap1\n      tag_80\n      jump\t// in\n    tag_79:\n      mload(0x40)\n      0x20\n      dup2\n      dup4\n      sub\n      sub\n      dup2\n      mstore\n      swap1\n      0x40\n      mstore\n        /* \"GRADES/grades.sol\":1723:1764  keccak256(abi.encodePacked(revisions[i])) */\n      dup1\n      mload\n      swap1\n      0x20\n      add\n      keccak256\n        /* \"GRADES/grades.sol\":1723:1807  keccak256(abi.encodePacked(revisions[i])) == keccak256(abi.encodePacked(_idStudent)) */\n      sub\n        /* \"GRADES/grades.sol\":1720:1836  if(keccak256(abi.encodePacked(revisions[i])) == keccak256(abi.encodePacked(_idStudent)))... */\n      tag_81\n      jumpi\n        /* \"GRADES/grades.sol\":1832:1836  true */\n      0x01\n        /* \"GRADES/grades.sol\":1825:1836  flag = true */\n      swap2\n      pop\n        /* \"GRADES/grades.sol\":1720:1836  if(keccak256(abi.encodePacked(revisions[i])) == keccak256(abi.encodePacked(_idStudent)))... */\n    tag_81:\n        /* \"GRADES/grades.sol\":1850:1853  i++ */\n      dup1\n      dup1\n      tag_82\n      swap1\n      tag_83\n      jump\t// in\n    tag_82:\n      swap2\n      pop\n      pop\n        /* \"GRADES/grades.sol\":1664:1864  while(i<revisions.length && flag == false){... */\n      jump(tag_71)\n    tag_72:\n        /* \"GRADES/grades.sol\":1880:1884  flag */\n      dup2\n        /* \"GRADES/grades.sol\":1873:1884  return flag */\n      swap3\n      pop\n      pop\n      pop\n        /* \"GRADES/grades.sol\":1529:1891  function isInRevisionList(string memory _idStudent) private view returns(bool){... */\n      swap2\n      swap1\n      pop\n      jump\t// out\n        /* \"#utility.yul\":7:82   */\n    tag_84:\n        /* \"#utility.yul\":40:46   */\n      0x00\n        /* \"#utility.yul\":73:75   */\n      0x40\n        /* \"#utility.yul\":67:76   */\n      mload\n        /* \"#utility.yul\":57:76   */\n      swap1\n      pop\n        /* \"#utility.yul\":7:82   */\n      swap1\n      jump\t// out\n        /* \"#utility.yul\":88:205   */\n    tag_85:\n        /* \"#utility.yul\":197:198   */\n      0x00\n        /* \"#utility.yul\":194:195   */\n      dup1\n        /* \"#utility.yul\":187:199   */\n      revert\n        /* \"#utility.yul\":211:328   */\n    tag_86:\n        /* \"#utility.yul\":320:321   */\n      0x00\n        /* \"#utility.yul\":317:318   */\n      dup1\n        /* \"#utility.yul\":310:322   */\n      revert\n        /* \"#utility.yul\":334:451   */\n    tag_87:\n        /* \"#utility.yul\":443:444   */\n      0x00\n        /* \"#utility.yul\":440:441   */\n      dup1\n        /* \"#utility.yul\":433:445   */\n      revert\n        /* \"#utility.yul\":457:574   */\n    tag_88:\n        /* \"#utility.yul\":566:567   */\n      0x00\n        /* \"#utility.yul\":563:564   */\n      dup1\n        /* \"#utility.yul\":556:568   */\n      revert\n        /* \"#utility.yul\":580:682   */\n    tag_89:\n        /* \"#utility.yul\":621:627   */\n      0x00\n        /* \"#utility.yul\":672:674   */\n      0x1f\n        /* \"#utility.yul\":668:675   */\n      not\n        /* \"#utility.yul\":663:665   */\n      0x1f\n        /* \"#utility.yul\":656:661   */\n      dup4\n        /* \"#utility.yul\":652:666   */\n      add\n        /* \"#utility.yul\":648:676   */\n      and\n        /* \"#utility.yul\":638:676   */\n      swap1\n      pop\n        /* \"#utility.yul\":580:682   */\n      swap2\n      swap1\n      pop\n      jump\t// out\n        /* \"#utility.yul\":688:868   */\n    tag_90:\n        /* \"#utility.yul\":736:813   */\n      0x4e487b7100000000000000000000000000000000000000000000000000000000\n        /* \"#utility.yul\":733:734   */\n      0x00\n        /* \"#utility.yul\":726:814   */\n      mstore\n        /* \"#utility.yul\":833:837   */\n      0x41\n        /* \"#utility.yul\":830:831   */\n      0x04\n        /* \"#utility.yul\":823:838   */\n      mstore\n        /* \"#utility.yul\":857:861   */\n      0x24\n        /* \"#utility.yul\":854:855   */\n      0x00\n        /* \"#utility.yul\":847:862   */\n      revert\n        /* \"#utility.yul\":874:1155   */\n    tag_91:\n        /* \"#utility.yul\":957:984   */\n      tag_154\n        /* \"#utility.yul\":979:983   */\n      dup3\n        /* \"#utility.yul\":957:984   */\n      tag_89\n      jump\t// in\n    tag_154:\n        /* \"#utility.yul\":949:955   */\n      dup2\n        /* \"#utility.yul\":945:985   */\n      add\n        /* \"#utility.yul\":1087:1093   */\n      dup2\n        /* \"#utility.yul\":1075:1085   */\n      dup2\n        /* \"#utility.yul\":1072:1094   */\n      lt\n        /* \"#utility.yul\":1051:1069   */\n      0xffffffffffffffff\n        /* \"#utility.yul\":1039:1049   */\n      dup3\n        /* \"#utility.yul\":1036:1070   */\n      gt\n        /* \"#utility.yul\":1033:1095   */\n      or\n        /* \"#utility.yul\":1030:1118   */\n      iszero\n      tag_155\n      jumpi\n        /* \"#utility.yul\":1098:1116   */\n      tag_156\n      tag_90\n      jump\t// in\n    tag_156:\n        /* \"#utility.yul\":1030:1118   */\n    tag_155:\n        /* \"#utility.yul\":1138:1148   */\n      dup1\n        /* \"#utility.yul\":1134:1136   */\n      0x40\n        /* \"#utility.yul\":1127:1149   */\n      mstore\n        /* \"#utility.yul\":917:1155   */\n      pop\n        /* \"#utility.yul\":874:1155   */\n      pop\n      pop\n      jump\t// out\n        /* \"#utility.yul\":1161:1290   */\n    tag_92:\n        /* \"#utility.yul\":1195:1201   */\n      0x00\n        /* \"#utility.yul\":1222:1242   */\n      tag_158\n      tag_84\n      jump\t// in\n    tag_158:\n        /* \"#utility.yul\":1212:1242   */\n      swap1\n      pop\n        /* \"#utility.yul\":1251:1284   */\n      tag_159\n        /* \"#utility.yul\":1279:1283   */\n      dup3\n        /* \"#utility.yul\":1271:1277   */\n      dup3\n        /* \"#utility.yul\":1251:1284   */\n      tag_91\n      jump\t// in\n    tag_159:\n        /* \"#utility.yul\":1161:1290   */\n      swap2\n      swap1\n      pop\n      jump\t// out\n        /* \"#utility.yul\":1296:1604   */\n    tag_93:\n        /* \"#utility.yul\":1358:1362   */\n      0x00\n        /* \"#utility.yul\":1448:1466   */\n      0xffffffffffffffff\n        /* \"#utility.yul\":1440:1446   */\n      dup3\n        /* \"#utility.yul\":1437:1467   */\n      gt\n        /* \"#utility.yul\":1434:1490   */\n      iszero\n      tag_161\n      jumpi\n        /* \"#utility.yul\":1470:1488   */\n      tag_162\n      tag_90\n      jump\t// in\n    tag_162:\n        /* \"#utility.yul\":1434:1490   */\n    tag_161:\n        /* \"#utility.yul\":1508:1537   */\n      tag_163\n        /* \"#utility.yul\":1530:1536   */\n      dup3\n        /* \"#utility.yul\":1508:1537   */\n      tag_89\n      jump\t// in\n    tag_163:\n        /* \"#utility.yul\":1500:1537   */\n      swap1\n      pop\n        /* \"#utility.yul\":1592:1596   */\n      0x20\n        /* \"#utility.yul\":1586:1590   */\n      dup2\n        /* \"#utility.yul\":1582:1597   */\n      add\n        /* \"#utility.yul\":1574:1597   */\n      swap1\n      pop\n        /* \"#utility.yul\":1296:1604   */\n      swap2\n      swap1\n      pop\n      jump\t// out\n        /* \"#utility.yul\":1610:1756   */\n    tag_94:\n        /* \"#utility.yul\":1707:1713   */\n      dup3\n        /* \"#utility.yul\":1702:1705   */\n      dup2\n        /* \"#utility.yul\":1697:1700   */\n      dup4\n        /* \"#utility.yul\":1684:1714   */\n      calldatacopy\n        /* \"#utility.yul\":1748:1749   */\n      0x00\n        /* \"#utility.yul\":1739:1745   */\n      dup4\n        /* \"#utility.yul\":1734:1737   */\n      dup4\n        /* \"#utility.yul\":1730:1746   */\n      add\n        /* \"#utility.yul\":1723:1750   */\n      mstore\n        /* \"#utility.yul\":1610:1756   */\n      pop\n      pop\n      pop\n      jump\t// out\n        /* \"#utility.yul\":1762:2187   */\n    tag_95:\n        /* \"#utility.yul\":1840:1845   */\n      0x00\n        /* \"#utility.yul\":1865:1931   */\n      tag_166\n        /* \"#utility.yul\":1881:1930   */\n      tag_167\n        /* \"#utility.yul\":1923:1929   */\n      dup5\n        /* \"#utility.yul\":1881:1930   */\n      tag_93\n      jump\t// in\n    tag_167:\n        /* \"#utility.yul\":1865:1931   */\n      tag_92\n      jump\t// in\n    tag_166:\n        /* \"#utility.yul\":1856:1931   */\n      swap1\n      pop\n        /* \"#utility.yul\":1954:1960   */\n      dup3\n        /* \"#utility.yul\":1947:1952   */\n      dup2\n        /* \"#utility.yul\":1940:1961   */\n      mstore\n        /* \"#utility.yul\":1992:1996   */\n      0x20\n        /* \"#utility.yul\":1985:1990   */\n      dup2\n        /* \"#utility.yul\":1981:1997   */\n      add\n        /* \"#utility.yul\":2030:2033   */\n      dup5\n        /* \"#utility.yul\":2021:2027   */\n      dup5\n        /* \"#utility.yul\":2016:2019   */\n      dup5\n        /* \"#utility.yul\":2012:2028   */\n      add\n        /* \"#utility.yul\":2009:2034   */\n      gt\n        /* \"#utility.yul\":2006:2118   */\n      iszero\n      tag_168\n      jumpi\n        /* \"#utility.yul\":2037:2116   */\n      tag_169\n      tag_88\n      jump\t// in\n    tag_169:\n        /* \"#utility.yul\":2006:2118   */\n    tag_168:\n        /* \"#utility.yul\":2127:2181   */\n      tag_170\n        /* \"#utility.yul\":2174:2180   */\n      dup5\n        /* \"#utility.yul\":2169:2172   */\n      dup3\n        /* \"#utility.yul\":2164:2167   */\n      dup6\n        /* \"#utility.yul\":2127:2181   */\n      tag_94\n      jump\t// in\n    tag_170:\n        /* \"#utility.yul\":1846:2187   */\n      pop\n        /* \"#utility.yul\":1762:2187   */\n      swap4\n      swap3\n      pop\n      pop\n      pop\n      jump\t// out\n        /* \"#utility.yul\":2207:2547   */\n    tag_96:\n        /* \"#utility.yul\":2263:2268   */\n      0x00\n        /* \"#utility.yul\":2312:2315   */\n      dup3\n        /* \"#utility.yul\":2305:2309   */\n      0x1f\n        /* \"#utility.yul\":2297:2303   */\n      dup4\n        /* \"#utility.yul\":2293:2310   */\n      add\n        /* \"#utility.yul\":2289:2316   */\n      slt\n        /* \"#utility.yul\":2279:2401   */\n      tag_172\n      jumpi\n        /* \"#utility.yul\":2320:2399   */\n      tag_173\n      tag_87\n      jump\t// in\n    tag_173:\n        /* \"#utility.yul\":2279:2401   */\n    tag_172:\n        /* \"#utility.yul\":2437:2443   */\n      dup2\n        /* \"#utility.yul\":2424:2444   */\n      calldataload\n        /* \"#utility.yul\":2462:2541   */\n      tag_174\n        /* \"#utility.yul\":2537:2540   */\n      dup5\n        /* \"#utility.yul\":2529:2535   */\n      dup3\n        /* \"#utility.yul\":2522:2526   */\n      0x20\n        /* \"#utility.yul\":2514:2520   */\n      dup7\n        /* \"#utility.yul\":2510:2527   */\n      add\n        /* \"#utility.yul\":2462:2541   */\n      tag_95\n      jump\t// in\n    tag_174:\n        /* \"#utility.yul\":2453:2541   */\n      swap2\n      pop\n        /* \"#utility.yul\":2269:2547   */\n      pop\n        /* \"#utility.yul\":2207:2547   */\n      swap3\n      swap2\n      pop\n      pop\n      jump\t// out\n        /* \"#utility.yul\":2553:2639   */\n    tag_97:\n        /* \"#utility.yul\":2588:2595   */\n      0x00\n        /* \"#utility.yul\":2628:2632   */\n      0xff\n        /* \"#utility.yul\":2621:2626   */\n      dup3\n        /* \"#utility.yul\":2617:2633   */\n      and\n        /* \"#utility.yul\":2606:2633   */\n      swap1\n      pop\n        /* \"#utility.yul\":2553:2639   */\n      swap2\n      swap1\n      pop\n      jump\t// out\n        /* \"#utility.yul\":2645:2763   */\n    tag_98:\n        /* \"#utility.yul\":2716:2738   */\n      tag_177\n        /* \"#utility.yul\":2732:2737   */\n      dup2\n        /* \"#utility.yul\":2716:2738   */\n      tag_97\n      jump\t// in\n    tag_177:\n        /* \"#utility.yul\":2709:2714   */\n      dup2\n        /* \"#utility.yul\":2706:2739   */\n      eq\n        /* \"#utility.yul\":2696:2757   */\n      tag_178\n      jumpi\n        /* \"#utility.yul\":2753:2754   */\n      0x00\n        /* \"#utility.yul\":2750:2751   */\n      dup1\n        /* \"#utility.yul\":2743:2755   */\n      revert\n        /* \"#utility.yul\":2696:2757   */\n    tag_178:\n        /* \"#utility.yul\":2645:2763   */\n      pop\n      jump\t// out\n        /* \"#utility.yul\":2769:2904   */\n    tag_99:\n        /* \"#utility.yul\":2813:2818   */\n      0x00\n        /* \"#utility.yul\":2851:2857   */\n      dup2\n        /* \"#utility.yul\":2838:2858   */\n      calldataload\n        /* \"#utility.yul\":2829:2858   */\n      swap1\n      pop\n        /* \"#utility.yul\":2867:2898   */\n      tag_180\n        /* \"#utility.yul\":2892:2897   */\n      dup2\n        /* \"#utility.yul\":2867:2898   */\n      tag_98\n      jump\t// in\n    tag_180:\n        /* \"#utility.yul\":2769:2904   */\n      swap3\n      swap2\n      pop\n      pop\n      jump\t// out\n        /* \"#utility.yul\":2910:3560   */\n    tag_10:\n        /* \"#utility.yul\":2986:2992   */\n      0x00\n        /* \"#utility.yul\":2994:3000   */\n      dup1\n        /* \"#utility.yul\":3043:3045   */\n      0x40\n        /* \"#utility.yul\":3031:3040   */\n      dup4\n        /* \"#utility.yul\":3022:3029   */\n      dup6\n        /* \"#utility.yul\":3018:3041   */\n      sub\n        /* \"#utility.yul\":3014:3046   */\n      slt\n        /* \"#utility.yul\":3011:3130   */\n      iszero\n      tag_182\n      jumpi\n        /* \"#utility.yul\":3049:3128   */\n      tag_183\n      tag_85\n      jump\t// in\n    tag_183:\n        /* \"#utility.yul\":3011:3130   */\n    tag_182:\n        /* \"#utility.yul\":3197:3198   */\n      0x00\n        /* \"#utility.yul\":3186:3195   */\n      dup4\n        /* \"#utility.yul\":3182:3199   */\n      add\n        /* \"#utility.yul\":3169:3200   */\n      calldataload\n        /* \"#utility.yul\":3227:3245   */\n      0xffffffffffffffff\n        /* \"#utility.yul\":3219:3225   */\n      dup2\n        /* \"#utility.yul\":3216:3246   */\n      gt\n        /* \"#utility.yul\":3213:3330   */\n      iszero\n      tag_184\n      jumpi\n        /* \"#utility.yul\":3249:3328   */\n      tag_185\n      tag_86\n      jump\t// in\n    tag_185:\n        /* \"#utility.yul\":3213:3330   */\n    tag_184:\n        /* \"#utility.yul\":3354:3417   */\n      tag_186\n        /* \"#utility.yul\":3409:3416   */\n      dup6\n        /* \"#utility.yul\":3400:3406   */\n      dup3\n        /* \"#utility.yul\":3389:3398   */\n      dup7\n        /* \"#utility.yul\":3385:3407   */\n      add\n        /* \"#utility.yul\":3354:3417   */\n      tag_96\n      jump\t// in\n    tag_186:\n        /* \"#utility.yul\":3344:3417   */\n      swap3\n      pop\n        /* \"#utility.yul\":3140:3427   */\n      pop\n        /* \"#utility.yul\":3466:3468   */\n      0x20\n        /* \"#utility.yul\":3492:3543   */\n      tag_187\n        /* \"#utility.yul\":3535:3542   */\n      dup6\n        /* \"#utility.yul\":3526:3532   */\n      dup3\n        /* \"#utility.yul\":3515:3524   */\n      dup7\n        /* \"#utility.yul\":3511:3533   */\n      add\n        /* \"#utility.yul\":3492:3543   */\n      tag_99\n      jump\t// in\n    tag_187:\n        /* \"#utility.yul\":3482:3543   */\n      swap2\n      pop\n        /* \"#utility.yul\":3437:3553   */\n      pop\n        /* \"#utility.yul\":2910:3560   */\n      swap3\n      pop\n      swap3\n      swap1\n      pop\n      jump\t// out\n        /* \"#utility.yul\":3566:4075   */\n    tag_14:\n        /* \"#utility.yul\":3635:3641   */\n      0x00\n        /* \"#utility.yul\":3684:3686   */\n      0x20\n        /* \"#utility.yul\":3672:3681   */\n      dup3\n        /* \"#utility.yul\":3663:3670   */\n      dup5\n        /* \"#utility.yul\":3659:3682   */\n      sub\n        /* \"#utility.yul\":3655:3687   */\n      slt\n        /* \"#utility.yul\":3652:3771   */\n      iszero\n      tag_189\n      jumpi\n        /* \"#utility.yul\":3690:3769   */\n      tag_190\n      tag_85\n      jump\t// in\n    tag_190:\n        /* \"#utility.yul\":3652:3771   */\n    tag_189:\n        /* \"#utility.yul\":3838:3839   */\n      0x00\n        /* \"#utility.yul\":3827:3836   */\n      dup3\n        /* \"#utility.yul\":3823:3840   */\n      add\n        /* \"#utility.yul\":3810:3841   */\n      calldataload\n        /* \"#utility.yul\":3868:3886   */\n      0xffffffffffffffff\n        /* \"#utility.yul\":3860:3866   */\n      dup2\n        /* \"#utility.yul\":3857:3887   */\n      gt\n        /* \"#utility.yul\":3854:3971   */\n      iszero\n      tag_191\n      jumpi\n        /* \"#utility.yul\":3890:3969   */\n      tag_192\n      tag_86\n      jump\t// in\n    tag_192:\n        /* \"#utility.yul\":3854:3971   */\n    tag_191:\n        /* \"#utility.yul\":3995:4058   */\n      tag_193\n        /* \"#utility.yul\":4050:4057   */\n      dup5\n        /* \"#utility.yul\":4041:4047   */\n      dup3\n        /* \"#utility.yul\":4030:4039   */\n      dup6\n        /* \"#utility.yul\":4026:4048   */\n      add\n        /* \"#utility.yul\":3995:4058   */\n      tag_96\n      jump\t// in\n    tag_193:\n        /* \"#utility.yul\":3985:4058   */\n      swap2\n      pop\n        /* \"#utility.yul\":3781:4068   */\n      pop\n        /* \"#utility.yul\":3566:4075   */\n      swap3\n      swap2\n      pop\n      pop\n      jump\t// out\n        /* \"#utility.yul\":4081:4193   */\n    tag_100:\n        /* \"#utility.yul\":4164:4186   */\n      tag_195\n        /* \"#utility.yul\":4180:4185   */\n      dup2\n        /* \"#utility.yul\":4164:4186   */\n      tag_97\n      jump\t// in\n    tag_195:\n        /* \"#utility.yul\":4159:4162   */\n      dup3\n        /* \"#utility.yul\":4152:4187   */\n      mstore\n        /* \"#utility.yul\":4081:4193   */\n      pop\n      pop\n      jump\t// out\n        /* \"#utility.yul\":4199:4413   */\n    tag_17:\n        /* \"#utility.yul\":4288:4292   */\n      0x00\n        /* \"#utility.yul\":4326:4328   */\n      0x20\n        /* \"#utility.yul\":4315:4324   */\n      dup3\n        /* \"#utility.yul\":4311:4329   */\n      add\n        /* \"#utility.yul\":4303:4329   */\n      swap1\n      pop\n        /* \"#utility.yul\":4339:4406   */\n      tag_197\n        /* \"#utility.yul\":4403:4404   */\n      0x00\n        /* \"#utility.yul\":4392:4401   */\n      dup4\n        /* \"#utility.yul\":4388:4405   */\n      add\n        /* \"#utility.yul\":4379:4385   */\n      dup5\n        /* \"#utility.yul\":4339:4406   */\n      tag_100\n      jump\t// in\n    tag_197:\n        /* \"#utility.yul\":4199:4413   */\n      swap3\n      swap2\n      pop\n      pop\n      jump\t// out\n        /* \"#utility.yul\":4419:4545   */\n    tag_101:\n        /* \"#utility.yul\":4456:4463   */\n      0x00\n        /* \"#utility.yul\":4496:4538   */\n      0xffffffffffffffffffffffffffffffffffffffff\n        /* \"#utility.yul\":4489:4494   */\n      dup3\n        /* \"#utility.yul\":4485:4539   */\n      and\n        /* \"#utility.yul\":4474:4539   */\n      swap1\n      pop\n        /* \"#utility.yul\":4419:4545   */\n      swap2\n      swap1\n      pop\n      jump\t// out\n        /* \"#utility.yul\":4551:4647   */\n    tag_102:\n        /* \"#utility.yul\":4588:4595   */\n      0x00\n        /* \"#utility.yul\":4617:4641   */\n      tag_200\n        /* \"#utility.yul\":4635:4640   */\n      dup3\n        /* \"#utility.yul\":4617:4641   */\n      tag_101\n      jump\t// in\n    tag_200:\n        /* \"#utility.yul\":4606:4641   */\n      swap1\n      pop\n        /* \"#utility.yul\":4551:4647   */\n      swap2\n      swap1\n      pop\n      jump\t// out\n        /* \"#utility.yul\":4653:4771   */\n    tag_103:\n        /* \"#utility.yul\":4740:4764   */\n      tag_202\n        /* \"#utility.yul\":4758:4763   */\n      dup2\n        /* \"#utility.yul\":4740:4764   */\n      tag_102\n      jump\t// in\n    tag_202:\n        /* \"#utility.yul\":4735:4738   */\n      dup3\n        /* \"#utility.yul\":4728:4765   */\n      mstore\n        /* \"#utility.yul\":4653:4771   */\n      pop\n      pop\n      jump\t// out\n        /* \"#utility.yul\":4777:4999   */\n    tag_24:\n        /* \"#utility.yul\":4870:4874   */\n      0x00\n        /* \"#utility.yul\":4908:4910   */\n      0x20\n        /* \"#utility.yul\":4897:4906   */\n      dup3\n        /* \"#utility.yul\":4893:4911   */\n      add\n        /* \"#utility.yul\":4885:4911   */\n      swap1\n      pop\n        /* \"#utility.yul\":4921:4992   */\n      tag_204\n        /* \"#utility.yul\":4989:4990   */\n      0x00\n        /* \"#utility.yul\":4978:4987   */\n      dup4\n        /* \"#utility.yul\":4974:4991   */\n      add\n        /* \"#utility.yul\":4965:4971   */\n      dup5\n        /* \"#utility.yul\":4921:4992   */\n      tag_103\n      jump\t// in\n    tag_204:\n        /* \"#utility.yul\":4777:4999   */\n      swap3\n      swap2\n      pop\n      pop\n      jump\t// out\n        /* \"#utility.yul\":5005:5129   */\n    tag_104:\n        /* \"#utility.yul\":5082:5088   */\n      0x00\n        /* \"#utility.yul\":5116:5121   */\n      dup2\n        /* \"#utility.yul\":5110:5122   */\n      mload\n        /* \"#utility.yul\":5100:5122   */\n      swap1\n      pop\n        /* \"#utility.yul\":5005:5129   */\n      swap2\n      swap1\n      pop\n      jump\t// out\n        /* \"#utility.yul\":5135:5329   */\n    tag_105:\n        /* \"#utility.yul\":5244:5255   */\n      0x00\n        /* \"#utility.yul\":5278:5284   */\n      dup3\n        /* \"#utility.yul\":5273:5276   */\n      dup3\n        /* \"#utility.yul\":5266:5285   */\n      mstore\n        /* \"#utility.yul\":5318:5322   */\n      0x20\n        /* \"#utility.yul\":5313:5316   */\n      dup3\n        /* \"#utility.yul\":5309:5323   */\n      add\n        /* \"#utility.yul\":5294:5323   */\n      swap1\n      pop\n        /* \"#utility.yul\":5135:5329   */\n      swap3\n      swap2\n      pop\n      pop\n      jump\t// out\n        /* \"#utility.yul\":5335:5477   */\n    tag_106:\n        /* \"#utility.yul\":5412:5416   */\n      0x00\n        /* \"#utility.yul\":5435:5438   */\n      dup2\n        /* \"#utility.yul\":5427:5438   */\n      swap1\n      pop\n        /* \"#utility.yul\":5465:5469   */\n      0x20\n        /* \"#utility.yul\":5460:5463   */\n      dup3\n        /* \"#utility.yul\":5456:5470   */\n      add\n        /* \"#utility.yul\":5448:5470   */\n      swap1\n      pop\n        /* \"#utility.yul\":5335:5477   */\n      swap2\n      swap1\n      pop\n      jump\t// out\n        /* \"#utility.yul\":5483:5582   */\n    tag_107:\n        /* \"#utility.yul\":5535:5541   */\n      0x00\n        /* \"#utility.yul\":5569:5574   */\n      dup2\n        /* \"#utility.yul\":5563:5575   */\n      mload\n        /* \"#utility.yul\":5553:5575   */\n      swap1\n      pop\n        /* \"#utility.yul\":5483:5582   */\n      swap2\n      swap1\n      pop\n      jump\t// out\n        /* \"#utility.yul\":5588:5747   */\n    tag_108:\n        /* \"#utility.yul\":5662:5673   */\n      0x00\n        /* \"#utility.yul\":5696:5702   */\n      dup3\n        /* \"#utility.yul\":5691:5694   */\n      dup3\n        /* \"#utility.yul\":5684:5703   */\n      mstore\n        /* \"#utility.yul\":5736:5740   */\n      0x20\n        /* \"#utility.yul\":5731:5734   */\n      dup3\n        /* \"#utility.yul\":5727:5741   */\n      add\n        /* \"#utility.yul\":5712:5741   */\n      swap1\n      pop\n        /* \"#utility.yul\":5588:5747   */\n      swap3\n      swap2\n      pop\n      pop\n      jump\t// out\n        /* \"#utility.yul\":5753:5999   */\n    tag_109:\n        /* \"#utility.yul\":5834:5835   */\n      0x00\n        /* \"#utility.yul\":5844:5957   */\n    tag_211:\n        /* \"#utility.yul\":5858:5864   */\n      dup4\n        /* \"#utility.yul\":5855:5856   */\n      dup2\n        /* \"#utility.yul\":5852:5865   */\n      lt\n        /* \"#utility.yul\":5844:5957   */\n      iszero\n      tag_213\n      jumpi\n        /* \"#utility.yul\":5943:5944   */\n      dup1\n        /* \"#utility.yul\":5938:5941   */\n      dup3\n        /* \"#utility.yul\":5934:5945   */\n      add\n        /* \"#utility.yul\":5928:5946   */\n      mload\n        /* \"#utility.yul\":5924:5925   */\n      dup2\n        /* \"#utility.yul\":5919:5922   */\n      dup5\n        /* \"#utility.yul\":5915:5926   */\n      add\n        /* \"#utility.yul\":5908:5947   */\n      mstore\n        /* \"#utility.yul\":5880:5882   */\n      0x20\n        /* \"#utility.yul\":5877:5878   */\n      dup2\n        /* \"#utility.yul\":5873:5883   */\n      add\n        /* \"#utility.yul\":5868:5883   */\n      swap1\n      pop\n        /* \"#utility.yul\":5844:5957   */\n      jump(tag_211)\n    tag_213:\n        /* \"#utility.yul\":5991:5992   */\n      0x00\n        /* \"#utility.yul\":5982:5988   */\n      dup5\n        /* \"#utility.yul\":5977:5980   */\n      dup5\n        /* \"#utility.yul\":5973:5989   */\n      add\n        /* \"#utility.yul\":5966:5993   */\n      mstore\n        /* \"#utility.yul\":5815:5999   */\n      pop\n        /* \"#utility.yul\":5753:5999   */\n      pop\n      pop\n      pop\n      jump\t// out\n        /* \"#utility.yul\":6005:6362   */\n    tag_110:\n        /* \"#utility.yul\":6083:6086   */\n      0x00\n        /* \"#utility.yul\":6111:6150   */\n      tag_215\n        /* \"#utility.yul\":6144:6149   */\n      dup3\n        /* \"#utility.yul\":6111:6150   */\n      tag_107\n      jump\t// in\n    tag_215:\n        /* \"#utility.yul\":6166:6227   */\n      tag_216\n        /* \"#utility.yul\":6220:6226   */\n      dup2\n        /* \"#utility.yul\":6215:6218   */\n      dup6\n        /* \"#utility.yul\":6166:6227   */\n      tag_108\n      jump\t// in\n    tag_216:\n        /* \"#utility.yul\":6159:6227   */\n      swap4\n      pop\n        /* \"#utility.yul\":6236:6301   */\n      tag_217\n        /* \"#utility.yul\":6294:6300   */\n      dup2\n        /* \"#utility.yul\":6289:6292   */\n      dup6\n        /* \"#utility.yul\":6282:6286   */\n      0x20\n        /* \"#utility.yul\":6275:6280   */\n      dup7\n        /* \"#utility.yul\":6271:6287   */\n      add\n        /* \"#utility.yul\":6236:6301   */\n      tag_109\n      jump\t// in\n    tag_217:\n        /* \"#utility.yul\":6326:6355   */\n      tag_218\n        /* \"#utility.yul\":6348:6354   */\n      dup2\n        /* \"#utility.yul\":6326:6355   */\n      tag_89\n      jump\t// in\n    tag_218:\n        /* \"#utility.yul\":6321:6324   */\n      dup5\n        /* \"#utility.yul\":6317:6356   */\n      add\n        /* \"#utility.yul\":6310:6356   */\n      swap2\n      pop\n        /* \"#utility.yul\":6087:6362   */\n      pop\n        /* \"#utility.yul\":6005:6362   */\n      swap3\n      swap2\n      pop\n      pop\n      jump\t// out\n        /* \"#utility.yul\":6368:6564   */\n    tag_111:\n        /* \"#utility.yul\":6457:6467   */\n      0x00\n        /* \"#utility.yul\":6492:6558   */\n      tag_220\n        /* \"#utility.yul\":6554:6557   */\n      dup4\n        /* \"#utility.yul\":6546:6552   */\n      dup4\n        /* \"#utility.yul\":6492:6558   */\n      tag_110\n      jump\t// in\n    tag_220:\n        /* \"#utility.yul\":6478:6558   */\n      swap1\n      pop\n        /* \"#utility.yul\":6368:6564   */\n      swap3\n      swap2\n      pop\n      pop\n      jump\t// out\n        /* \"#utility.yul\":6570:6693   */\n    tag_112:\n        /* \"#utility.yul\":6650:6654   */\n      0x00\n        /* \"#utility.yul\":6682:6686   */\n      0x20\n        /* \"#utility.yul\":6677:6680   */\n      dup3\n        /* \"#utility.yul\":6673:6687   */\n      add\n        /* \"#utility.yul\":6665:6687   */\n      swap1\n      pop\n        /* \"#utility.yul\":6570:6693   */\n      swap2\n      swap1\n      pop\n      jump\t// out\n        /* \"#utility.yul\":6727:7718   */\n    tag_113:\n        /* \"#utility.yul\":6866:6869   */\n      0x00\n        /* \"#utility.yul\":6895:6959   */\n      tag_223\n        /* \"#utility.yul\":6953:6958   */\n      dup3\n        /* \"#utility.yul\":6895:6959   */\n      tag_104\n      jump\t// in\n    tag_223:\n        /* \"#utility.yul\":6975:7071   */\n      tag_224\n        /* \"#utility.yul\":7064:7070   */\n      dup2\n        /* \"#utility.yul\":7059:7062   */\n      dup6\n        /* \"#utility.yul\":6975:7071   */\n      tag_105\n      jump\t// in\n    tag_224:\n        /* \"#utility.yul\":6968:7071   */\n      swap4\n      pop\n        /* \"#utility.yul\":7097:7100   */\n      dup4\n        /* \"#utility.yul\":7142:7146   */\n      0x20\n        /* \"#utility.yul\":7134:7140   */\n      dup3\n        /* \"#utility.yul\":7130:7147   */\n      mul\n        /* \"#utility.yul\":7125:7128   */\n      dup6\n        /* \"#utility.yul\":7121:7148   */\n      add\n        /* \"#utility.yul\":7172:7238   */\n      tag_225\n        /* \"#utility.yul\":7232:7237   */\n      dup6\n        /* \"#utility.yul\":7172:7238   */\n      tag_106\n      jump\t// in\n    tag_225:\n        /* \"#utility.yul\":7261:7268   */\n      dup1\n        /* \"#utility.yul\":7292:7293   */\n      0x00\n        /* \"#utility.yul\":7277:7673   */\n    tag_226:\n        /* \"#utility.yul\":7302:7308   */\n      dup6\n        /* \"#utility.yul\":7299:7300   */\n      dup2\n        /* \"#utility.yul\":7296:7309   */\n      lt\n        /* \"#utility.yul\":7277:7673   */\n      iszero\n      tag_228\n      jumpi\n        /* \"#utility.yul\":7373:7382   */\n      dup5\n        /* \"#utility.yul\":7367:7371   */\n      dup5\n        /* \"#utility.yul\":7363:7383   */\n      sub\n        /* \"#utility.yul\":7358:7361   */\n      dup10\n        /* \"#utility.yul\":7351:7384   */\n      mstore\n        /* \"#utility.yul\":7424:7430   */\n      dup2\n        /* \"#utility.yul\":7418:7431   */\n      mload\n        /* \"#utility.yul\":7452:7536   */\n      tag_229\n        /* \"#utility.yul\":7531:7535   */\n      dup6\n        /* \"#utility.yul\":7516:7529   */\n      dup3\n        /* \"#utility.yul\":7452:7536   */\n      tag_111\n      jump\t// in\n    tag_229:\n        /* \"#utility.yul\":7444:7536   */\n      swap5\n      pop\n        /* \"#utility.yul\":7559:7629   */\n      tag_230\n        /* \"#utility.yul\":7622:7628   */\n      dup4\n        /* \"#utility.yul\":7559:7629   */\n      tag_112\n      jump\t// in\n    tag_230:\n        /* \"#utility.yul\":7549:7629   */\n      swap3\n      pop\n        /* \"#utility.yul\":7658:7662   */\n      0x20\n        /* \"#utility.yul\":7653:7656   */\n      dup11\n        /* \"#utility.yul\":7649:7663   */\n      add\n        /* \"#utility.yul\":7642:7663   */\n      swap10\n      pop\n        /* \"#utility.yul\":7337:7673   */\n      pop\n        /* \"#utility.yul\":7324:7325   */\n      0x01\n        /* \"#utility.yul\":7321:7322   */\n      dup2\n        /* \"#utility.yul\":7317:7326   */\n      add\n        /* \"#utility.yul\":7312:7326   */\n      swap1\n      pop\n        /* \"#utility.yul\":7277:7673   */\n      jump(tag_226)\n    tag_228:\n        /* \"#utility.yul\":7281:7295   */\n      pop\n        /* \"#utility.yul\":7689:7693   */\n      dup3\n        /* \"#utility.yul\":7682:7693   */\n      swap8\n      pop\n        /* \"#utility.yul\":7709:7712   */\n      dup8\n        /* \"#utility.yul\":7702:7712   */\n      swap6\n      pop\n        /* \"#utility.yul\":6871:7718   */\n      pop\n      pop\n      pop\n      pop\n      pop\n        /* \"#utility.yul\":6727:7718   */\n      swap3\n      swap2\n      pop\n      pop\n      jump\t// out\n        /* \"#utility.yul\":7724:8137   */\n    tag_28:\n        /* \"#utility.yul\":7887:7891   */\n      0x00\n        /* \"#utility.yul\":7925:7927   */\n      0x20\n        /* \"#utility.yul\":7914:7923   */\n      dup3\n        /* \"#utility.yul\":7910:7928   */\n      add\n        /* \"#utility.yul\":7902:7928   */\n      swap1\n      pop\n        /* \"#utility.yul\":7974:7983   */\n      dup2\n        /* \"#utility.yul\":7968:7972   */\n      dup2\n        /* \"#utility.yul\":7964:7984   */\n      sub\n        /* \"#utility.yul\":7960:7961   */\n      0x00\n        /* \"#utility.yul\":7949:7958   */\n      dup4\n        /* \"#utility.yul\":7945:7962   */\n      add\n        /* \"#utility.yul\":7938:7985   */\n      mstore\n        /* \"#utility.yul\":8002:8130   */\n      tag_232\n        /* \"#utility.yul\":8125:8129   */\n      dup2\n        /* \"#utility.yul\":8116:8122   */\n      dup5\n        /* \"#utility.yul\":8002:8130   */\n      tag_113\n      jump\t// in\n    tag_232:\n        /* \"#utility.yul\":7994:8130   */\n      swap1\n      pop\n        /* \"#utility.yul\":7724:8137   */\n      swap3\n      swap2\n      pop\n      pop\n      jump\t// out\n        /* \"#utility.yul\":8143:8312   */\n    tag_114:\n        /* \"#utility.yul\":8227:8238   */\n      0x00\n        /* \"#utility.yul\":8261:8267   */\n      dup3\n        /* \"#utility.yul\":8256:8259   */\n      dup3\n        /* \"#utility.yul\":8249:8268   */\n      mstore\n        /* \"#utility.yul\":8301:8305   */\n      0x20\n        /* \"#utility.yul\":8296:8299   */\n      dup3\n        /* \"#utility.yul\":8292:8306   */\n      add\n        /* \"#utility.yul\":8277:8306   */\n      swap1\n      pop\n        /* \"#utility.yul\":8143:8312   */\n      swap3\n      swap2\n      pop\n      pop\n      jump\t// out\n        /* \"#utility.yul\":8318:8495   */\n    tag_115:\n        /* \"#utility.yul\":8458:8487   */\n      0x596f7520646f6e27742068617665207065726d697373696f6e732e0000000000\n        /* \"#utility.yul\":8454:8455   */\n      0x00\n        /* \"#utility.yul\":8446:8452   */\n      dup3\n        /* \"#utility.yul\":8442:8456   */\n      add\n        /* \"#utility.yul\":8435:8488   */\n      mstore\n        /* \"#utility.yul\":8318:8495   */\n      pop\n      jump\t// out\n        /* \"#utility.yul\":8501:8867   */\n    tag_116:\n        /* \"#utility.yul\":8643:8646   */\n      0x00\n        /* \"#utility.yul\":8664:8731   */\n      tag_236\n        /* \"#utility.yul\":8728:8730   */\n      0x1b\n        /* \"#utility.yul\":8723:8726   */\n      dup4\n        /* \"#utility.yul\":8664:8731   */\n      tag_114\n      jump\t// in\n    tag_236:\n        /* \"#utility.yul\":8657:8731   */\n      swap2\n      pop\n        /* \"#utility.yul\":8740:8833   */\n      tag_237\n        /* \"#utility.yul\":8829:8832   */\n      dup3\n        /* \"#utility.yul\":8740:8833   */\n      tag_115\n      jump\t// in\n    tag_237:\n        /* \"#utility.yul\":8858:8860   */\n      0x20\n        /* \"#utility.yul\":8853:8856   */\n      dup3\n        /* \"#utility.yul\":8849:8861   */\n      add\n        /* \"#utility.yul\":8842:8861   */\n      swap1\n      pop\n        /* \"#utility.yul\":8501:8867   */\n      swap2\n      swap1\n      pop\n      jump\t// out\n        /* \"#utility.yul\":8873:9292   */\n    tag_32:\n        /* \"#utility.yul\":9039:9043   */\n      0x00\n        /* \"#utility.yul\":9077:9079   */\n      0x20\n        /* \"#utility.yul\":9066:9075   */\n      dup3\n        /* \"#utility.yul\":9062:9080   */\n      add\n        /* \"#utility.yul\":9054:9080   */\n      swap1\n      pop\n        /* \"#utility.yul\":9126:9135   */\n      dup2\n        /* \"#utility.yul\":9120:9124   */\n      dup2\n        /* \"#utility.yul\":9116:9136   */\n      sub\n        /* \"#utility.yul\":9112:9113   */\n      0x00\n        /* \"#utility.yul\":9101:9110   */\n      dup4\n        /* \"#utility.yul\":9097:9114   */\n      add\n        /* \"#utility.yul\":9090:9137   */\n      mstore\n        /* \"#utility.yul\":9154:9285   */\n      tag_239\n        /* \"#utility.yul\":9280:9284   */\n      dup2\n        /* \"#utility.yul\":9154:9285   */\n      tag_116\n      jump\t// in\n    tag_239:\n        /* \"#utility.yul\":9146:9285   */\n      swap1\n      pop\n        /* \"#utility.yul\":8873:9292   */\n      swap2\n      swap1\n      pop\n      jump\t// out\n        /* \"#utility.yul\":9298:9375   */\n    tag_117:\n        /* \"#utility.yul\":9335:9342   */\n      0x00\n        /* \"#utility.yul\":9364:9369   */\n      dup2\n        /* \"#utility.yul\":9353:9369   */\n      swap1\n      pop\n        /* \"#utility.yul\":9298:9375   */\n      swap2\n      swap1\n      pop\n      jump\t// out\n        /* \"#utility.yul\":9381:9499   */\n    tag_118:\n        /* \"#utility.yul\":9468:9492   */\n      tag_242\n        /* \"#utility.yul\":9486:9491   */\n      dup2\n        /* \"#utility.yul\":9468:9492   */\n      tag_117\n      jump\t// in\n    tag_242:\n        /* \"#utility.yul\":9463:9466   */\n      dup3\n        /* \"#utility.yul\":9456:9493   */\n      mstore\n        /* \"#utility.yul\":9381:9499   */\n      pop\n      pop\n      jump\t// out\n        /* \"#utility.yul\":9505:9829   */\n    tag_37:\n        /* \"#utility.yul\":9622:9626   */\n      0x00\n        /* \"#utility.yul\":9660:9662   */\n      0x40\n        /* \"#utility.yul\":9649:9658   */\n      dup3\n        /* \"#utility.yul\":9645:9663   */\n      add\n        /* \"#utility.yul\":9637:9663   */\n      swap1\n      pop\n        /* \"#utility.yul\":9673:9744   */\n      tag_244\n        /* \"#utility.yul\":9741:9742   */\n      0x00\n        /* \"#utility.yul\":9730:9739   */\n      dup4\n        /* \"#utility.yul\":9726:9743   */\n      add\n        /* \"#utility.yul\":9717:9723   */\n      dup6\n        /* \"#utility.yul\":9673:9744   */\n      tag_118\n      jump\t// in\n    tag_244:\n        /* \"#utility.yul\":9754:9822   */\n      tag_245\n        /* \"#utility.yul\":9818:9820   */\n      0x20\n        /* \"#utility.yul\":9807:9816   */\n      dup4\n        /* \"#utility.yul\":9803:9821   */\n      add\n        /* \"#utility.yul\":9794:9800   */\n      dup5\n        /* \"#utility.yul\":9754:9822   */\n      tag_100\n      jump\t// in\n    tag_245:\n        /* \"#utility.yul\":9505:9829   */\n      swap4\n      swap3\n      pop\n      pop\n      pop\n      jump\t// out\n        /* \"#utility.yul\":9835:10007   */\n    tag_119:\n        /* \"#utility.yul\":9975:9999   */\n      0x53747564656e7420646f65736e27742065786973747300000000000000000000\n        /* \"#utility.yul\":9971:9972   */\n      0x00\n        /* \"#utility.yul\":9963:9969   */\n      dup3\n        /* \"#utility.yul\":9959:9973   */\n      add\n        /* \"#utility.yul\":9952:10000   */\n      mstore\n        /* \"#utility.yul\":9835:10007   */\n      pop\n      jump\t// out\n        /* \"#utility.yul\":10013:10379   */\n    tag_120:\n        /* \"#utility.yul\":10155:10158   */\n      0x00\n        /* \"#utility.yul\":10176:10243   */\n      tag_248\n        /* \"#utility.yul\":10240:10242   */\n      0x16\n        /* \"#utility.yul\":10235:10238   */\n      dup4\n        /* \"#utility.yul\":10176:10243   */\n      tag_114\n      jump\t// in\n    tag_248:\n        /* \"#utility.yul\":10169:10243   */\n      swap2\n      pop\n        /* \"#utility.yul\":10252:10345   */\n      tag_249\n        /* \"#utility.yul\":10341:10344   */\n      dup3\n        /* \"#utility.yul\":10252:10345   */\n      tag_119\n      jump\t// in\n    tag_249:\n        /* \"#utility.yul\":10370:10372   */\n      0x20\n        /* \"#utility.yul\":10365:10368   */\n      dup3\n        /* \"#utility.yul\":10361:10373   */\n      add\n        /* \"#utility.yul\":10354:10373   */\n      swap1\n      pop\n        /* \"#utility.yul\":10013:10379   */\n      swap2\n      swap1\n      pop\n      jump\t// out\n        /* \"#utility.yul\":10385:10804   */\n    tag_42:\n        /* \"#utility.yul\":10551:10555   */\n      0x00\n        /* \"#utility.yul\":10589:10591   */\n      0x20\n        /* \"#utility.yul\":10578:10587   */\n      dup3\n        /* \"#utility.yul\":10574:10592   */\n      add\n        /* \"#utility.yul\":10566:10592   */\n      swap1\n      pop\n        /* \"#utility.yul\":10638:10647   */\n      dup2\n        /* \"#utility.yul\":10632:10636   */\n      dup2\n        /* \"#utility.yul\":10628:10648   */\n      sub\n        /* \"#utility.yul\":10624:10625   */\n      0x00\n        /* \"#utility.yul\":10613:10622   */\n      dup4\n        /* \"#utility.yul\":10609:10626   */\n      add\n        /* \"#utility.yul\":10602:10649   */\n      mstore\n        /* \"#utility.yul\":10666:10797   */\n      tag_251\n        /* \"#utility.yul\":10792:10796   */\n      dup2\n        /* \"#utility.yul\":10666:10797   */\n      tag_120\n      jump\t// in\n    tag_251:\n        /* \"#utility.yul\":10658:10797   */\n      swap1\n      pop\n        /* \"#utility.yul\":10385:10804   */\n      swap2\n      swap1\n      pop\n      jump\t// out\n        /* \"#utility.yul\":10810:10990   */\n    tag_121:\n        /* \"#utility.yul\":10950:10982   */\n      0x53747564656e7420697320616c7265616479206f6e20746865206c6973740000\n        /* \"#utility.yul\":10946:10947   */\n      0x00\n        /* \"#utility.yul\":10938:10944   */\n      dup3\n        /* \"#utility.yul\":10934:10948   */\n      add\n        /* \"#utility.yul\":10927:10983   */\n      mstore\n        /* \"#utility.yul\":10810:10990   */\n      pop\n      jump\t// out\n        /* \"#utility.yul\":10996:11362   */\n    tag_122:\n        /* \"#utility.yul\":11138:11141   */\n      0x00\n        /* \"#utility.yul\":11159:11226   */\n      tag_254\n        /* \"#utility.yul\":11223:11225   */\n      0x1e\n        /* \"#utility.yul\":11218:11221   */\n      dup4\n        /* \"#utility.yul\":11159:11226   */\n      tag_114\n      jump\t// in\n    tag_254:\n        /* \"#utility.yul\":11152:11226   */\n      swap2\n      pop\n        /* \"#utility.yul\":11235:11328   */\n      tag_255\n        /* \"#utility.yul\":11324:11327   */\n      dup3\n        /* \"#utility.yul\":11235:11328   */\n      tag_121\n      jump\t// in\n    tag_255:\n        /* \"#utility.yul\":11353:11355   */\n      0x20\n        /* \"#utility.yul\":11348:11351   */\n      dup3\n        /* \"#utility.yul\":11344:11356   */\n      add\n        /* \"#utility.yul\":11337:11356   */\n      swap1\n      pop\n        /* \"#utility.yul\":10996:11362   */\n      swap2\n      swap1\n      pop\n      jump\t// out\n        /* \"#utility.yul\":11368:11787   */\n    tag_51:\n        /* \"#utility.yul\":11534:11538   */\n      0x00\n        /* \"#utility.yul\":11572:11574   */\n      0x20\n        /* \"#utility.yul\":11561:11570   */\n      dup3\n        /* \"#utility.yul\":11557:11575   */\n      add\n        /* \"#utility.yul\":11549:11575   */\n      swap1\n      pop\n        /* \"#utility.yul\":11621:11630   */\n      dup2\n        /* \"#utility.yul\":11615:11619   */\n      dup2\n        /* \"#utility.yul\":11611:11631   */\n      sub\n        /* \"#utility.yul\":11607:11608   */\n      0x00\n        /* \"#utility.yul\":11596:11605   */\n      dup4\n        /* \"#utility.yul\":11592:11609   */\n      add\n        /* \"#utility.yul\":11585:11632   */\n      mstore\n        /* \"#utility.yul\":11649:11780   */\n      tag_257\n        /* \"#utility.yul\":11775:11779   */\n      dup2\n        /* \"#utility.yul\":11649:11780   */\n      tag_122\n      jump\t// in\n    tag_257:\n        /* \"#utility.yul\":11641:11780   */\n      swap1\n      pop\n        /* \"#utility.yul\":11368:11787   */\n      swap2\n      swap1\n      pop\n      jump\t// out\n        /* \"#utility.yul\":11793:11973   */\n    tag_123:\n        /* \"#utility.yul\":11841:11918   */\n      0x4e487b7100000000000000000000000000000000000000000000000000000000\n        /* \"#utility.yul\":11838:11839   */\n      0x00\n        /* \"#utility.yul\":11831:11919   */\n      mstore\n        /* \"#utility.yul\":11938:11942   */\n      0x22\n        /* \"#utility.yul\":11935:11936   */\n      0x04\n        /* \"#utility.yul\":11928:11943   */\n      mstore\n        /* \"#utility.yul\":11962:11966   */\n      0x24\n        /* \"#utility.yul\":11959:11960   */\n      0x00\n        /* \"#utility.yul\":11952:11967   */\n      revert\n        /* \"#utility.yul\":11979:12299   */\n    tag_62:\n        /* \"#utility.yul\":12023:12029   */\n      0x00\n        /* \"#utility.yul\":12060:12061   */\n      0x02\n        /* \"#utility.yul\":12054:12058   */\n      dup3\n        /* \"#utility.yul\":12050:12062   */\n      div\n        /* \"#utility.yul\":12040:12062   */\n      swap1\n      pop\n        /* \"#utility.yul\":12107:12108   */\n      0x01\n        /* \"#utility.yul\":12101:12105   */\n      dup3\n        /* \"#utility.yul\":12097:12109   */\n      and\n        /* \"#utility.yul\":12128:12146   */\n      dup1\n        /* \"#utility.yul\":12118:12199   */\n      tag_260\n      jumpi\n        /* \"#utility.yul\":12184:12188   */\n      0x7f\n        /* \"#utility.yul\":12176:12182   */\n      dup3\n        /* \"#utility.yul\":12172:12189   */\n      and\n        /* \"#utility.yul\":12162:12189   */\n      swap2\n      pop\n        /* \"#utility.yul\":12118:12199   */\n    tag_260:\n        /* \"#utility.yul\":12246:12248   */\n      0x20\n        /* \"#utility.yul\":12238:12244   */\n      dup3\n        /* \"#utility.yul\":12235:12249   */\n      lt\n        /* \"#utility.yul\":12215:12233   */\n      dup2\n        /* \"#utility.yul\":12212:12250   */\n      sub\n        /* \"#utility.yul\":12209:12293   */\n      tag_261\n      jumpi\n        /* \"#utility.yul\":12265:12283   */\n      tag_262\n      tag_123\n      jump\t// in\n    tag_262:\n        /* \"#utility.yul\":12209:12293   */\n    tag_261:\n        /* \"#utility.yul\":12030:12299   */\n      pop\n        /* \"#utility.yul\":11979:12299   */\n      swap2\n      swap1\n      pop\n      jump\t// out\n        /* \"#utility.yul\":12305:12446   */\n    tag_124:\n        /* \"#utility.yul\":12354:12358   */\n      0x00\n        /* \"#utility.yul\":12377:12380   */\n      dup2\n        /* \"#utility.yul\":12369:12380   */\n      swap1\n      pop\n        /* \"#utility.yul\":12400:12403   */\n      dup2\n        /* \"#utility.yul\":12397:12398   */\n      0x00\n        /* \"#utility.yul\":12390:12404   */\n      mstore\n        /* \"#utility.yul\":12434:12438   */\n      0x20\n        /* \"#utility.yul\":12431:12432   */\n      0x00\n        /* \"#utility.yul\":12421:12439   */\n      keccak256\n        /* \"#utility.yul\":12413:12439   */\n      swap1\n      pop\n        /* \"#utility.yul\":12305:12446   */\n      swap2\n      swap1\n      pop\n      jump\t// out\n        /* \"#utility.yul\":12452:12545   */\n    tag_125:\n        /* \"#utility.yul\":12489:12495   */\n      0x00\n        /* \"#utility.yul\":12536:12538   */\n      0x20\n        /* \"#utility.yul\":12531:12533   */\n      0x1f\n        /* \"#utility.yul\":12524:12529   */\n      dup4\n        /* \"#utility.yul\":12520:12534   */\n      add\n        /* \"#utility.yul\":12516:12539   */\n      div\n        /* \"#utility.yul\":12506:12539   */\n      swap1\n      pop\n        /* \"#utility.yul\":12452:12545   */\n      swap2\n      swap1\n      pop\n      jump\t// out\n        /* \"#utility.yul\":12551:12658   */\n    tag_126:\n        /* \"#utility.yul\":12595:12603   */\n      0x00\n        /* \"#utility.yul\":12645:12650   */\n      dup3\n        /* \"#utility.yul\":12639:12643   */\n      dup3\n        /* \"#utility.yul\":12635:12651   */\n      shl\n        /* \"#utility.yul\":12614:12651   */\n      swap1\n      pop\n        /* \"#utility.yul\":12551:12658   */\n      swap3\n      swap2\n      pop\n      pop\n      jump\t// out\n        /* \"#utility.yul\":12664:13057   */\n    tag_127:\n        /* \"#utility.yul\":12733:12739   */\n      0x00\n        /* \"#utility.yul\":12783:12784   */\n      0x08\n        /* \"#utility.yul\":12771:12781   */\n      dup4\n        /* \"#utility.yul\":12767:12785   */\n      mul\n        /* \"#utility.yul\":12806:12903   */\n      tag_267\n        /* \"#utility.yul\":12836:12902   */\n      0xffffffffffffffffffffffffffffffffffffffffffffffffffffffffffffffff\n        /* \"#utility.yul\":12825:12834   */\n      dup3\n        /* \"#utility.yul\":12806:12903   */\n      tag_126\n      jump\t// in\n    tag_267:\n        /* \"#utility.yul\":12924:12963   */\n      tag_268\n        /* \"#utility.yul\":12954:12962   */\n      dup7\n        /* \"#utility.yul\":12943:12952   */\n      dup4\n        /* \"#utility.yul\":12924:12963   */\n      tag_126\n      jump\t// in\n    tag_268:\n        /* \"#utility.yul\":12912:12963   */\n      swap6\n      pop\n        /* \"#utility.yul\":12996:13000   */\n      dup1\n        /* \"#utility.yul\":12992:13001   */\n      not\n        /* \"#utility.yul\":12985:12990   */\n      dup5\n        /* \"#utility.yul\":12981:13002   */\n      and\n        /* \"#utility.yul\":12972:13002   */\n      swap4\n      pop\n        /* \"#utility.yul\":13045:13049   */\n      dup1\n        /* \"#utility.yul\":13035:13043   */\n      dup7\n        /* \"#utility.yul\":13031:13050   */\n      and\n        /* \"#utility.yul\":13024:13029   */\n      dup5\n        /* \"#utility.yul\":13021:13051   */\n      or\n        /* \"#utility.yul\":13011:13051   */\n      swap3\n      pop\n        /* \"#utility.yul\":12740:13057   */\n      pop\n      pop\n        /* \"#utility.yul\":12664:13057   */\n      swap4\n      swap3\n      pop\n      pop\n      pop\n      jump\t// out\n        /* \"#utility.yul\":13063:13140   */\n    tag_128:\n        /* \"#utility.yul\":13100:13107   */\n      0x00\n        /* \"#utility.yul\":13129:13134   */\n      dup2\n        /* \"#utility.yul\":13118:13134   */\n      swap1\n      pop\n        /* \"#utility.yul\":13063:13140   */\n      swap2\n      swap1\n      pop\n      jump\t// out\n        /* \"#utility.yul\":13146:13206   */\n    tag_129:\n        /* \"#utility.yul\":13174:13177   */\n      0x00\n        /* \"#utility.yul\":13195:13200   */\n      dup2\n        /* \"#utility.yul\":13188:13200   */\n      swap1\n      pop\n        /* \"#utility.yul\":13146:13206   */\n      swap2\n      swap1\n      pop\n      jump\t// out\n        /* \"#utility.yul\":13212:13354   */\n    tag_130:\n        /* \"#utility.yul\":13262:13271   */\n      0x00\n        /* \"#utility.yul\":13295:13348   */\n      tag_272\n        /* \"#utility.yul\":13313:13347   */\n      tag_273\n        /* \"#utility.yul\":13322:13346   */\n      tag_274\n        /* \"#utility.yul\":13340:13345   */\n      dup5\n        /* \"#utility.yul\":13322:13346   */\n      tag_128\n      jump\t// in\n    tag_274:\n        /* \"#utility.yul\":13313:13347   */\n      tag_129\n      jump\t// in\n    tag_273:\n        /* \"#utility.yul\":13295:13348   */\n      tag_128\n      jump\t// in\n    tag_272:\n        /* \"#utility.yul\":13282:13348   */\n      swap1\n      pop\n        /* \"#utility.yul\":13212:13354   */\n      swap2\n      swap1\n      pop\n      jump\t// out\n        /* \"#utility.yul\":13360:13435   */\n    tag_131:\n        /* \"#utility.yul\":13403:13406   */\n      0x00\n        /* \"#utility.yul\":13424:13429   */\n      dup2\n        /* \"#utility.yul\":13417:13429   */\n      swap1\n      pop\n        /* \"#utility.yul\":13360:13435   */\n      swap2\n      swap1\n      pop\n      jump\t// out\n        /* \"#utility.yul\":13441:13710   */\n    tag_132:\n        /* \"#utility.yul\":13551:13590   */\n      tag_277\n        /* \"#utility.yul\":13582:13589   */\n      dup4\n        /* \"#utility.yul\":13551:13590   */\n      tag_130\n      jump\t// in\n    tag_277:\n        /* \"#utility.yul\":13612:13703   */\n      tag_278\n        /* \"#utility.yul\":13661:13702   */\n      tag_279\n        /* \"#utility.yul\":13685:13701   */\n      dup3\n        /* \"#utility.yul\":13661:13702   */\n      tag_131\n      jump\t// in\n    tag_279:\n        /* \"#utility.yul\":13653:13659   */\n      dup5\n        /* \"#utility.yul\":13646:13650   */\n      dup5\n        /* \"#utility.yul\":13640:13651   */\n      sload\n        /* \"#utility.yul\":13612:13703   */\n      tag_127\n      jump\t// in\n    tag_278:\n        /* \"#utility.yul\":13606:13610   */\n      dup3\n        /* \"#utility.yul\":13599:13704   */\n      sstore\n        /* \"#utility.yul\":13517:13710   */\n      pop\n        /* \"#utility.yul\":13441:13710   */\n      pop\n      pop\n      pop\n      jump\t// out\n        /* \"#utility.yul\":13716:13789   */\n    tag_133:\n        /* \"#utility.yul\":13761:13764   */\n      0x00\n        /* \"#utility.yul\":13716:13789   */\n      swap1\n      jump\t// out\n        /* \"#utility.yul\":13795:13984   */\n    tag_134:\n        /* \"#utility.yul\":13872:13904   */\n      tag_282\n      tag_133\n      jump\t// in\n    tag_282:\n        /* \"#utility.yul\":13913:13978   */\n      tag_283\n        /* \"#utility.yul\":13971:13977   */\n      dup2\n        /* \"#utility.yul\":13963:13969   */\n      dup5\n        /* \"#utility.yul\":13957:13961   */\n      dup5\n        /* \"#utility.yul\":13913:13978   */\n      tag_132\n      jump\t// in\n    tag_283:\n        /* \"#utility.yul\":13848:13984   */\n      pop\n        /* \"#utility.yul\":13795:13984   */\n      pop\n      pop\n      jump\t// out\n        /* \"#utility.yul\":13990:14176   */\n    tag_135:\n        /* \"#utility.yul\":14050:14170   */\n    tag_285:\n        /* \"#utility.yul\":14067:14070   */\n      dup2\n        /* \"#utility.yul\":14060:14065   */\n      dup2\n        /* \"#utility.yul\":14057:14071   */\n      lt\n        /* \"#utility.yul\":14050:14170   */\n      iszero\n      tag_287\n      jumpi\n        /* \"#utility.yul\":14121:14160   */\n      tag_288\n        /* \"#utility.yul\":14158:14159   */\n      0x00\n        /* \"#utility.yul\":14151:14156   */\n      dup3\n        /* \"#utility.yul\":14121:14160   */\n      tag_134\n      jump\t// in\n    tag_288:\n        /* \"#utility.yul\":14094:14095   */\n      0x01\n        /* \"#utility.yul\":14087:14092   */\n      dup2\n        /* \"#utility.yul\":14083:14096   */\n      add\n        /* \"#utility.yul\":14074:14096   */\n      swap1\n      pop\n        /* \"#utility.yul\":14050:14170   */\n      jump(tag_285)\n    tag_287:\n        /* \"#utility.yul\":13990:14176   */\n      pop\n      pop\n      jump\t// out\n        /* \"#utility.yul\":14182:14725   */\n    tag_136:\n        /* \"#utility.yul\":14283:14285   */\n      0x1f\n        /* \"#utility.yul\":14278:14281   */\n      dup3\n        /* \"#utility.yul\":14275:14286   */\n      gt\n        /* \"#utility.yul\":14272:14718   */\n      iszero\n      tag_290\n      jumpi\n        /* \"#utility.yul\":14317:14355   */\n      tag_291\n        /* \"#utility.yul\":14349:14354   */\n      dup2\n        /* \"#utility.yul\":14317:14355   */\n      tag_124\n      jump\t// in\n    tag_291:\n        /* \"#utility.yul\":14401:14430   */\n      tag_292\n        /* \"#utility.yul\":14419:14429   */\n      dup5\n        /* \"#utility.yul\":14401:14430   */\n      tag_125\n      jump\t// in\n    tag_292:\n        /* \"#utility.yul\":14391:14399   */\n      dup2\n        /* \"#utility.yul\":14387:14431   */\n      add\n        /* \"#utility.yul\":14584:14586   */\n      0x20\n        /* \"#utility.yul\":14572:14582   */\n      dup6\n        /* \"#utility.yul\":14569:14587   */\n      lt\n        /* \"#utility.yul\":14566:14615   */\n      iszero\n      tag_293\n      jumpi\n        /* \"#utility.yul\":14605:14613   */\n      dup2\n        /* \"#utility.yul\":14590:14613   */\n      swap1\n      pop\n        /* \"#utility.yul\":14566:14615   */\n    tag_293:\n        /* \"#utility.yul\":14628:14708   */\n      tag_294\n        /* \"#utility.yul\":14684:14706   */\n      tag_295\n        /* \"#utility.yul\":14702:14705   */\n      dup6\n        /* \"#utility.yul\":14684:14706   */\n      tag_125\n      jump\t// in\n    tag_295:\n        /* \"#utility.yul\":14674:14682   */\n      dup4\n        /* \"#utility.yul\":14670:14707   */\n      add\n        /* \"#utility.yul\":14657:14668   */\n      dup3\n        /* \"#utility.yul\":14628:14708   */\n      tag_135\n      jump\t// in\n    tag_294:\n        /* \"#utility.yul\":14287:14718   */\n      pop\n      pop\n        /* \"#utility.yul\":14272:14718   */\n    tag_290:\n        /* \"#utility.yul\":14182:14725   */\n      pop\n      pop\n      pop\n      jump\t// out\n        /* \"#utility.yul\":14731:14848   */\n    tag_137:\n        /* \"#utility.yul\":14785:14793   */\n      0x00\n        /* \"#utility.yul\":14835:14840   */\n      dup3\n        /* \"#utility.yul\":14829:14833   */\n      dup3\n        /* \"#utility.yul\":14825:14841   */\n      shr\n        /* \"#utility.yul\":14804:14841   */\n      swap1\n      pop\n        /* \"#utility.yul\":14731:14848   */\n      swap3\n      swap2\n      pop\n      pop\n      jump\t// out\n        /* \"#utility.yul\":14854:15023   */\n    tag_138:\n        /* \"#utility.yul\":14898:14904   */\n      0x00\n        /* \"#utility.yul\":14931:14982   */\n      tag_298\n        /* \"#utility.yul\":14979:14980   */\n      0x00\n        /* \"#utility.yul\":14975:14981   */\n      not\n        /* \"#utility.yul\":14967:14972   */\n      dup5\n        /* \"#utility.yul\":14964:14965   */\n      0x08\n        /* \"#utility.yul\":14960:14973   */\n      mul\n        /* \"#utility.yul\":14931:14982   */\n      tag_137\n      jump\t// in\n    tag_298:\n        /* \"#utility.yul\":14927:14983   */\n      not\n        /* \"#utility.yul\":15012:15016   */\n      dup1\n        /* \"#utility.yul\":15006:15010   */\n      dup4\n        /* \"#utility.yul\":15002:15017   */\n      and\n        /* \"#utility.yul\":14992:15017   */\n      swap2\n      pop\n        /* \"#utility.yul\":14905:15023   */\n      pop\n        /* \"#utility.yul\":14854:15023   */\n      swap3\n      swap2\n      pop\n      pop\n      jump\t// out\n        /* \"#utility.yul\":15028:15323   */\n    tag_139:\n        /* \"#utility.yul\":15104:15108   */\n      0x00\n        /* \"#utility.yul\":15250:15279   */\n      tag_300\n        /* \"#utility.yul\":15275:15278   */\n      dup4\n        /* \"#utility.yul\":15269:15273   */\n      dup4\n        /* \"#utility.yul\":15250:15279   */\n      tag_138\n      jump\t// in\n    tag_300:\n        /* \"#utility.yul\":15242:15279   */\n      swap2\n      pop\n        /* \"#utility.yul\":15312:15315   */\n      dup3\n        /* \"#utility.yul\":15309:15310   */\n      0x02\n        /* \"#utility.yul\":15305:15316   */\n      mul\n        /* \"#utility.yul\":15299:15303   */\n      dup3\n        /* \"#utility.yul\":15296:15317   */\n      or\n        /* \"#utility.yul\":15288:15317   */\n      swap1\n      pop\n        /* \"#utility.yul\":15028:15323   */\n      swap3\n      swap2\n      pop\n      pop\n      jump\t// out\n        /* \"#utility.yul\":15328:16723   */\n    tag_54:\n        /* \"#utility.yul\":15445:15482   */\n      tag_302\n        /* \"#utility.yul\":15478:15481   */\n      dup3\n        /* \"#utility.yul\":15445:15482   */\n      tag_107\n      jump\t// in\n    tag_302:\n        /* \"#utility.yul\":15547:15565   */\n      0xffffffffffffffff\n        /* \"#utility.yul\":15539:15545   */\n      dup2\n        /* \"#utility.yul\":15536:15566   */\n      gt\n        /* \"#utility.yul\":15533:15589   */\n      iszero\n      tag_303\n      jumpi\n        /* \"#utility.yul\":15569:15587   */\n      tag_304\n      tag_90\n      jump\t// in\n    tag_304:\n        /* \"#utility.yul\":15533:15589   */\n    tag_303:\n        /* \"#utility.yul\":15613:15651   */\n      tag_305\n        /* \"#utility.yul\":15645:15649   */\n      dup3\n        /* \"#utility.yul\":15639:15650   */\n      sload\n        /* \"#utility.yul\":15613:15651   */\n      tag_62\n      jump\t// in\n    tag_305:\n        /* \"#utility.yul\":15698:15765   */\n      tag_306\n        /* \"#utility.yul\":15758:15764   */\n      dup3\n        /* \"#utility.yul\":15750:15756   */\n      dup3\n        /* \"#utility.yul\":15744:15748   */\n      dup6\n        /* \"#utility.yul\":15698:15765   */\n      tag_136\n      jump\t// in\n    tag_306:\n        /* \"#utility.yul\":15792:15793   */\n      0x00\n        /* \"#utility.yul\":15816:15820   */\n      0x20\n        /* \"#utility.yul\":15803:15820   */\n      swap1\n      pop\n        /* \"#utility.yul\":15848:15850   */\n      0x1f\n        /* \"#utility.yul\":15840:15846   */\n      dup4\n        /* \"#utility.yul\":15837:15851   */\n      gt\n        /* \"#utility.yul\":15865:15866   */\n      0x01\n        /* \"#utility.yul\":15860:16478   */\n      dup2\n      eq\n      tag_308\n      jumpi\n        /* \"#utility.yul\":16522:16523   */\n      0x00\n        /* \"#utility.yul\":16539:16545   */\n      dup5\n        /* \"#utility.yul\":16536:16613   */\n      iszero\n      tag_309\n      jumpi\n        /* \"#utility.yul\":16588:16597   */\n      dup3\n        /* \"#utility.yul\":16583:16586   */\n      dup8\n        /* \"#utility.yul\":16579:16598   */\n      add\n        /* \"#utility.yul\":16573:16599   */\n      mload\n        /* \"#utility.yul\":16564:16599   */\n      swap1\n      pop\n        /* \"#utility.yul\":16536:16613   */\n    tag_309:\n        /* \"#utility.yul\":16639:16706   */\n      tag_310\n        /* \"#utility.yul\":16699:16705   */\n      dup6\n        /* \"#utility.yul\":16692:16697   */\n      dup3\n        /* \"#utility.yul\":16639:16706   */\n      tag_139\n      jump\t// in\n    tag_310:\n        /* \"#utility.yul\":16633:16637   */\n      dup7\n        /* \"#utility.yul\":16626:16707   */\n      sstore\n        /* \"#utility.yul\":16495:16717   */\n      pop\n        /* \"#utility.yul\":15830:16717   */\n      jump(tag_307)\n        /* \"#utility.yul\":15860:16478   */\n    tag_308:\n        /* \"#utility.yul\":15912:15916   */\n      0x1f\n        /* \"#utility.yul\":15908:15917   */\n      not\n        /* \"#utility.yul\":15900:15906   */\n      dup5\n        /* \"#utility.yul\":15896:15918   */\n      and\n        /* \"#utility.yul\":15946:15983   */\n      tag_311\n        /* \"#utility.yul\":15978:15982   */\n      dup7\n        /* \"#utility.yul\":15946:15983   */\n      tag_124\n      jump\t// in\n    tag_311:\n        /* \"#utility.yul\":16005:16006   */\n      0x00\n        /* \"#utility.yul\":16019:16227   */\n    tag_312:\n        /* \"#utility.yul\":16033:16040   */\n      dup3\n        /* \"#utility.yul\":16030:16031   */\n      dup2\n        /* \"#utility.yul\":16027:16041   */\n      lt\n        /* \"#utility.yul\":16019:16227   */\n      iszero\n      tag_314\n      jumpi\n        /* \"#utility.yul\":16112:16121   */\n      dup5\n        /* \"#utility.yul\":16107:16110   */\n      dup10\n        /* \"#utility.yul\":16103:16122   */\n      add\n        /* \"#utility.yul\":16097:16123   */\n      mload\n        /* \"#utility.yul\":16089:16095   */\n      dup3\n        /* \"#utility.yul\":16082:16124   */\n      sstore\n        /* \"#utility.yul\":16163:16164   */\n      0x01\n        /* \"#utility.yul\":16155:16161   */\n      dup3\n        /* \"#utility.yul\":16151:16165   */\n      add\n        /* \"#utility.yul\":16141:16165   */\n      swap2\n      pop\n        /* \"#utility.yul\":16210:16212   */\n      0x20\n        /* \"#utility.yul\":16199:16208   */\n      dup6\n        /* \"#utility.yul\":16195:16213   */\n      add\n        /* \"#utility.yul\":16182:16213   */\n      swap5\n      pop\n        /* \"#utility.yul\":16056:16060   */\n      0x20\n        /* \"#utility.yul\":16053:16054   */\n      dup2\n        /* \"#utility.yul\":16049:16061   */\n      add\n        /* \"#utility.yul\":16044:16061   */\n      swap1\n      pop\n        /* \"#utility.yul\":16019:16227   */\n      jump(tag_312)\n    tag_314:\n        /* \"#utility.yul\":16255:16261   */\n      dup7\n        /* \"#utility.yul\":16246:16253   */\n      dup4\n        /* \"#utility.yul\":16243:16262   */\n      lt\n        /* \"#utility.yul\":16240:16419   */\n      iszero\n      tag_315\n      jumpi\n        /* \"#utility.yul\":16313:16322   */\n      dup5\n        /* \"#utility.yul\":16308:16311   */\n      dup10\n        /* \"#utility.yul\":16304:16323   */\n      add\n        /* \"#utility.yul\":16298:16324   */\n      mload\n        /* \"#utility.yul\":16356:16404   */\n      tag_316\n        /* \"#utility.yul\":16398:16402   */\n      0x1f\n        /* \"#utility.yul\":16390:16396   */\n      dup10\n        /* \"#utility.yul\":16386:16403   */\n      and\n        /* \"#utility.yul\":16375:16384   */\n      dup3\n        /* \"#utility.yul\":16356:16404   */\n      tag_138\n      jump\t// in\n    tag_316:\n        /* \"#utility.yul\":16348:16354   */\n      dup4\n        /* \"#utility.yul\":16341:16405   */\n      sstore\n        /* \"#utility.yul\":16263:16419   */\n      pop\n        /* \"#utility.yul\":16240:16419   */\n    tag_315:\n        /* \"#utility.yul\":16465:16466   */\n      0x01\n        /* \"#utility.yul\":16461:16462   */\n      0x02\n        /* \"#utility.yul\":16453:16459   */\n      dup9\n        /* \"#utility.yul\":16449:16463   */\n      mul\n        /* \"#utility.yul\":16445:16467   */\n      add\n        /* \"#utility.yul\":16439:16443   */\n      dup9\n        /* \"#utility.yul\":16432:16468   */\n      sstore\n        /* \"#utility.yul\":15867:16478   */\n      pop\n      pop\n      pop\n        /* \"#utility.yul\":15830:16717   */\n    tag_307:\n      pop\n        /* \"#utility.yul\":15420:16723   */\n      pop\n      pop\n      pop\n        /* \"#utility.yul\":15328:16723   */\n      pop\n      pop\n      jump\t// out\n        /* \"#utility.yul\":16729:17106   */\n    tag_140:\n        /* \"#utility.yul\":16817:16820   */\n      0x00\n        /* \"#utility.yul\":16845:16884   */\n      tag_318\n        /* \"#utility.yul\":16878:16883   */\n      dup3\n        /* \"#utility.yul\":16845:16884   */\n      tag_107\n      jump\t// in\n    tag_318:\n        /* \"#utility.yul\":16900:16971   */\n      tag_319\n        /* \"#utility.yul\":16964:16970   */\n      dup2\n        /* \"#utility.yul\":16959:16962   */\n      dup6\n        /* \"#utility.yul\":16900:16971   */\n      tag_114\n      jump\t// in\n    tag_319:\n        /* \"#utility.yul\":16893:16971   */\n      swap4\n      pop\n        /* \"#utility.yul\":16980:17045   */\n      tag_320\n        /* \"#utility.yul\":17038:17044   */\n      dup2\n        /* \"#utility.yul\":17033:17036   */\n      dup6\n        /* \"#utility.yul\":17026:17030   */\n      0x20\n        /* \"#utility.yul\":17019:17024   */\n      dup7\n        /* \"#utility.yul\":17015:17031   */\n      add\n        /* \"#utility.yul\":16980:17045   */\n      tag_109\n      jump\t// in\n    tag_320:\n        /* \"#utility.yul\":17070:17099   */\n      tag_321\n        /* \"#utility.yul\":17092:17098   */\n      dup2\n        /* \"#utility.yul\":17070:17099   */\n      tag_89\n      jump\t// in\n    tag_321:\n        /* \"#utility.yul\":17065:17068   */\n      dup5\n        /* \"#utility.yul\":17061:17100   */\n      add\n        /* \"#utility.yul\":17054:17100   */\n      swap2\n      pop\n        /* \"#utility.yul\":16821:17106   */\n      pop\n        /* \"#utility.yul\":16729:17106   */\n      swap3\n      swap2\n      pop\n      pop\n      jump\t// out\n        /* \"#utility.yul\":17112:17425   */\n    tag_56:\n        /* \"#utility.yul\":17225:17229   */\n      0x00\n        /* \"#utility.yul\":17263:17265   */\n      0x20\n        /* \"#utility.yul\":17252:17261   */\n      dup3\n        /* \"#utility.yul\":17248:17266   */\n      add\n        /* \"#utility.yul\":17240:17266   */\n      swap1\n      pop\n        /* \"#utility.yul\":17312:17321   */\n      dup2\n        /* \"#utility.yul\":17306:17310   */\n      dup2\n        /* \"#utility.yul\":17302:17322   */\n      sub\n        /* \"#utility.yul\":17298:17299   */\n      0x00\n        /* \"#utility.yul\":17287:17296   */\n      dup4\n        /* \"#utility.yul\":17283:17300   */\n      add\n        /* \"#utility.yul\":17276:17323   */\n      mstore\n        /* \"#utility.yul\":17340:17418   */\n      tag_323\n        /* \"#utility.yul\":17413:17417   */\n      dup2\n        /* \"#utility.yul\":17404:17410   */\n      dup5\n        /* \"#utility.yul\":17340:17418   */\n      tag_140\n      jump\t// in\n    tag_323:\n        /* \"#utility.yul\":17332:17418   */\n      swap1\n      pop\n        /* \"#utility.yul\":17112:17425   */\n      swap3\n      swap2\n      pop\n      pop\n      jump\t// out\n        /* \"#utility.yul\":17431:17579   */\n    tag_141:\n        /* \"#utility.yul\":17533:17544   */\n      0x00\n        /* \"#utility.yul\":17570:17573   */\n      dup2\n        /* \"#utility.yul\":17555:17573   */\n      swap1\n      pop\n        /* \"#utility.yul\":17431:17579   */\n      swap3\n      swap2\n      pop\n      pop\n      jump\t// out\n        /* \"#utility.yul\":17585:17975   */\n    tag_142:\n        /* \"#utility.yul\":17691:17694   */\n      0x00\n        /* \"#utility.yul\":17719:17758   */\n      tag_326\n        /* \"#utility.yul\":17752:17757   */\n      dup3\n        /* \"#utility.yul\":17719:17758   */\n      tag_107\n      jump\t// in\n    tag_326:\n        /* \"#utility.yul\":17774:17863   */\n      tag_327\n        /* \"#utility.yul\":17856:17862   */\n      dup2\n        /* \"#utility.yul\":17851:17854   */\n      dup6\n        /* \"#utility.yul\":17774:17863   */\n      tag_141\n      jump\t// in\n    tag_327:\n        /* \"#utility.yul\":17767:17863   */\n      swap4\n      pop\n        /* \"#utility.yul\":17872:17937   */\n      tag_328\n        /* \"#utility.yul\":17930:17936   */\n      dup2\n        /* \"#utility.yul\":17925:17928   */\n      dup6\n        /* \"#utility.yul\":17918:17922   */\n      0x20\n        /* \"#utility.yul\":17911:17916   */\n      dup7\n        /* \"#utility.yul\":17907:17923   */\n      add\n        /* \"#utility.yul\":17872:17937   */\n      tag_109\n      jump\t// in\n    tag_328:\n        /* \"#utility.yul\":17962:17968   */\n      dup1\n        /* \"#utility.yul\":17957:17960   */\n      dup5\n        /* \"#utility.yul\":17953:17969   */\n      add\n        /* \"#utility.yul\":17946:17969   */\n      swap2\n      pop\n        /* \"#utility.yul\":17695:17975   */\n      pop\n        /* \"#utility.yul\":17585:17975   */\n      swap3\n      swap2\n      pop\n      pop\n      jump\t// out\n        /* \"#utility.yul\":17981:18256   */\n    tag_69:\n        /* \"#utility.yul\":18113:18116   */\n      0x00\n        /* \"#utility.yul\":18135:18230   */\n      tag_330\n        /* \"#utility.yul\":18226:18229   */\n      dup3\n        /* \"#utility.yul\":18217:18223   */\n      dup5\n        /* \"#utility.yul\":18135:18230   */\n      tag_142\n      jump\t// in\n    tag_330:\n        /* \"#utility.yul\":18128:18230   */\n      swap2\n      pop\n        /* \"#utility.yul\":18247:18250   */\n      dup2\n        /* \"#utility.yul\":18240:18250   */\n      swap1\n      pop\n        /* \"#utility.yul\":17981:18256   */\n      swap3\n      swap2\n      pop\n      pop\n      jump\t// out\n        /* \"#utility.yul\":18262:18442   */\n    tag_77:\n        /* \"#utility.yul\":18310:18387   */\n      0x4e487b7100000000000000000000000000000000000000000000000000000000\n        /* \"#utility.yul\":18307:18308   */\n      0x00\n        /* \"#utility.yul\":18300:18388   */\n      mstore\n        /* \"#utility.yul\":18407:18411   */\n      0x32\n        /* \"#utility.yul\":18404:18405   */\n      0x04\n        /* \"#utility.yul\":18397:18412   */\n      mstore\n        /* \"#utility.yul\":18431:18435   */\n      0x24\n        /* \"#utility.yul\":18428:18429   */\n      0x00\n        /* \"#utility.yul\":18421:18436   */\n      revert\n        /* \"#utility.yul\":18472:19346   */\n    tag_143:\n        /* \"#utility.yul\":18575:18578   */\n      0x00\n        /* \"#utility.yul\":18612:18617   */\n      dup2\n        /* \"#utility.yul\":18606:18618   */\n      sload\n        /* \"#utility.yul\":18641:18677   */\n      tag_333\n        /* \"#utility.yul\":18667:18676   */\n      dup2\n        /* \"#utility.yul\":18641:18677   */\n      tag_62\n      jump\t// in\n    tag_333:\n        /* \"#utility.yul\":18693:18782   */\n      tag_334\n        /* \"#utility.yul\":18775:18781   */\n      dup2\n        /* \"#utility.yul\":18770:18773   */\n      dup7\n        /* \"#utility.yul\":18693:18782   */\n      tag_141\n      jump\t// in\n    tag_334:\n        /* \"#utility.yul\":18686:18782   */\n      swap5\n      pop\n        /* \"#utility.yul\":18813:18814   */\n      0x01\n        /* \"#utility.yul\":18802:18811   */\n      dup3\n        /* \"#utility.yul\":18798:18815   */\n      and\n        /* \"#utility.yul\":18829:18830   */\n      0x00\n        /* \"#utility.yul\":18824:18990   */\n      dup2\n      eq\n      tag_336\n      jumpi\n        /* \"#utility.yul\":19004:19005   */\n      0x01\n        /* \"#utility.yul\":18999:19340   */\n      dup2\n      eq\n      tag_337\n      jumpi\n        /* \"#utility.yul\":18791:19340   */\n      jump(tag_335)\n        /* \"#utility.yul\":18824:18990   */\n    tag_336:\n        /* \"#utility.yul\":18908:18912   */\n      0xff\n        /* \"#utility.yul\":18904:18913   */\n      not\n        /* \"#utility.yul\":18893:18902   */\n      dup4\n        /* \"#utility.yul\":18889:18914   */\n      and\n        /* \"#utility.yul\":18884:18887   */\n      dup7\n        /* \"#utility.yul\":18877:18915   */\n      mstore\n        /* \"#utility.yul\":18970:18976   */\n      dup2\n        /* \"#utility.yul\":18963:18977   */\n      iszero\n        /* \"#utility.yul\":18956:18978   */\n      iszero\n        /* \"#utility.yul\":18948:18954   */\n      dup3\n        /* \"#utility.yul\":18944:18979   */\n      mul\n        /* \"#utility.yul\":18939:18942   */\n      dup7\n        /* \"#utility.yul\":18935:18980   */\n      add\n        /* \"#utility.yul\":18928:18980   */\n      swap4\n      pop\n        /* \"#utility.yul\":18824:18990   */\n      jump(tag_335)\n        /* \"#utility.yul\":18999:19340   */\n    tag_337:\n        /* \"#utility.yul\":19066:19104   */\n      tag_338\n        /* \"#utility.yul\":19098:19103   */\n      dup6\n        /* \"#utility.yul\":19066:19104   */\n      tag_124\n      jump\t// in\n    tag_338:\n        /* \"#utility.yul\":19126:19127   */\n      0x00\n        /* \"#utility.yul\":19140:19294   */\n    tag_339:\n        /* \"#utility.yul\":19154:19160   */\n      dup4\n        /* \"#utility.yul\":19151:19152   */\n      dup2\n        /* \"#utility.yul\":19148:19161   */\n      lt\n        /* \"#utility.yul\":19140:19294   */\n      iszero\n      tag_341\n      jumpi\n        /* \"#utility.yul\":19228:19235   */\n      dup2\n        /* \"#utility.yul\":19222:19236   */\n      sload\n        /* \"#utility.yul\":19218:19219   */\n      dup2\n        /* \"#utility.yul\":19213:19216   */\n      dup10\n        /* \"#utility.yul\":19209:19220   */\n      add\n        /* \"#utility.yul\":19202:19237   */\n      mstore\n        /* \"#utility.yul\":19278:19279   */\n      0x01\n        /* \"#utility.yul\":19269:19276   */\n      dup3\n        /* \"#utility.yul\":19265:19280   */\n      add\n        /* \"#utility.yul\":19254:19280   */\n      swap2\n      pop\n        /* \"#utility.yul\":19176:19180   */\n      0x20\n        /* \"#utility.yul\":19173:19174   */\n      dup2\n        /* \"#utility.yul\":19169:19181   */\n      add\n        /* \"#utility.yul\":19164:19181   */\n      swap1\n      pop\n        /* \"#utility.yul\":19140:19294   */\n      jump(tag_339)\n    tag_341:\n        /* \"#utility.yul\":19323:19329   */\n      dup4\n        /* \"#utility.yul\":19318:19321   */\n      dup9\n        /* \"#utility.yul\":19314:19330   */\n      add\n        /* \"#utility.yul\":19307:19330   */\n      swap6\n      pop\n        /* \"#utility.yul\":19006:19340   */\n      pop\n      pop\n        /* \"#utility.yul\":18791:19340   */\n    tag_335:\n      pop\n        /* \"#utility.yul\":18579:19346   */\n      pop\n      pop\n        /* \"#utility.yul\":18472:19346   */\n      swap3\n      swap2\n      pop\n      pop\n      jump\t// out\n        /* \"#utility.yul\":19352:19621   */\n    tag_80:\n        /* \"#utility.yul\":19481:19484   */\n      0x00\n        /* \"#utility.yul\":19503:19595   */\n      tag_343\n        /* \"#utility.yul\":19591:19594   */\n      dup3\n        /* \"#utility.yul\":19582:19588   */\n      dup5\n        /* \"#utility.yul\":19503:19595   */\n      tag_143\n      jump\t// in\n    tag_343:\n        /* \"#utility.yul\":19496:19595   */\n      swap2\n      pop\n        /* \"#utility.yul\":19612:19615   */\n      dup2\n        /* \"#utility.yul\":19605:19615   */\n      swap1\n      pop\n        /* \"#utility.yul\":19352:19621   */\n      swap3\n      swap2\n      pop\n      pop\n      jump\t// out\n        /* \"#utility.yul\":19627:19807   */\n    tag_144:\n        /* \"#utility.yul\":19675:19752   */\n      0x4e487b7100000000000000000000000000000000000000000000000000000000\n        /* \"#utility.yul\":19672:19673   */\n      0x00\n        /* \"#utility.yul\":19665:19753   */\n      mstore\n        /* \"#utility.yul\":19772:19776   */\n      0x11\n        /* \"#utility.yul\":19769:19770   */\n      0x04\n        /* \"#utility.yul\":19762:19777   */\n      mstore\n        /* \"#utility.yul\":19796:19800   */\n      0x24\n        /* \"#utility.yul\":19793:19794   */\n      0x00\n        /* \"#utility.yul\":19786:19801   */\n      revert\n        /* \"#utility.yul\":19813:20046   */\n    tag_83:\n        /* \"#utility.yul\":19852:19855   */\n      0x00\n        /* \"#utility.yul\":19875:19899   */\n      tag_346\n        /* \"#utility.yul\":19893:19898   */\n      dup3\n        /* \"#utility.yul\":19875:19899   */\n      tag_128\n      jump\t// in\n    tag_346:\n        /* \"#utility.yul\":19866:19899   */\n      swap2\n      pop\n        /* \"#utility.yul\":19921:19987   */\n      0xffffffffffffffffffffffffffffffffffffffffffffffffffffffffffffffff\n        /* \"#utility.yul\":19914:19919   */\n      dup3\n        /* \"#utility.yul\":19911:19988   */\n      sub\n        /* \"#utility.yul\":19908:20011   */\n      tag_347\n      jumpi\n        /* \"#utility.yul\":19991:20009   */\n      tag_348\n      tag_144\n      jump\t// in\n    tag_348:\n        /* \"#utility.yul\":19908:20011   */\n    tag_347:\n        /* \"#utility.yul\":20038:20039   */\n      0x01\n        /* \"#utility.yul\":20031:20036   */\n      dup3\n        /* \"#utility.yul\":20027:20040   */\n      add\n        /* \"#utility.yul\":20020:20040   */\n      swap1\n      pop\n        /* \"#utility.yul\":19813:20046   */\n      swap2\n      swap1\n      pop\n      jump\t// out\n\n    auxdata: 0xa26469706673582212205133c846bc71a492f76e62e88f99d8383be8bd0ee6ed1bf9da3b0284b56fdb7164736f6c63430008120033\n}\n",
				"bytecode": {
					"linkReferences": {},
					"object": "608060405234801561001057600080fd5b50336000806101000a81548173ffffffffffffffffffffffffffffffffffffffff021916908373ffffffffffffffffffffffffffffffffffffffff16021790555061107a806100606000396000f3fe608060405234801561001057600080fd5b50600436106100575760003560e01c8063309e1bc51461005c5780633590fb2a1461007857806335d2db97146100a85780635113940d146100c4578063b7406849146100e2575b600080fd5b61007660048036038101906100719190610749565b610100565b005b610092600480360381019061008d91906107a5565b610207565b60405161009f91906107fd565b60405180910390f35b6100c260048036038101906100bd91906107a5565b6102aa565b005b6100cc6103d0565b6040516100d99190610859565b60405180910390f35b6100ea6103f4565b6040516100f791906109b5565b60405180910390f35b338073ffffffffffffffffffffffffffffffffffffffff1660008054906101000a900473ffffffffffffffffffffffffffffffffffffffff1673ffffffffffffffffffffffffffffffffffffffff161461018f576040517f08c379a000000000000000000000000000000000000000000000000000000000815260040161018690610a34565b60405180910390fd5b600061019a846104cd565b9050826001600083815260200190815260200160002060006101000a81548160ff021916908360ff1602179055507fa1f852c5e000ff00ac0025fe2e85eb386d5ff468a706a63d7d1bc9979af42cb981846040516101f9929190610a6d565b60405180910390a150505050565b600080610213836104cd565b905060006001600083815260200190815260200160002060009054906101000a900460ff1660ff160361027b576040517f08c379a000000000000000000000000000000000000000000000000000000000815260040161027290610ae2565b60405180910390fd5b60006001600083815260200190815260200160002060009054906101000a900460ff1690508092505050919050565b6000600160006102b9846104cd565b815260200190815260200160002060009054906101000a900460ff1660ff1603610318576040517f08c379a000000000000000000000000000000000000000000000000000000000815260040161030f90610ae2565b60405180910390fd5b610321816104fd565b15610361576040517f08c379a000000000000000000000000000000000000000000000000000000000815260040161035890610b4e565b60405180910390fd5b6002819080600181540180825580915050600190039060005260206000200160009091909190915090816103959190610d84565b507fb2035f3cbc94c91fe4005d71d8e105625a4bc0f3e54c011ecebf4ee4bab0bc5f816040516103c59190610e8f565b60405180910390a150565b60008054906101000a900473ffffffffffffffffffffffffffffffffffffffff1681565b60606002805480602002602001604051908101604052809291908181526020016000905b828210156104c457838290600052602060002001805461043790610b9d565b80601f016020809104026020016040519081016040528092919081815260200182805461046390610b9d565b80156104b05780601f10610485576101008083540402835291602001916104b0565b820191906000526020600020905b81548152906001019060200180831161049357829003601f168201915b505050505081526020019060010190610418565b50505050905090565b6000816040516020016104e09190610eed565b604051602081830303815290604052805190602001209050919050565b6000806000905060005b6002805490508110801561051f575060001515821515145b156105ac57836040516020016105359190610eed565b604051602081830303815290604052805190602001206002828154811061055f5761055e610f04565b5b906000526020600020016040516020016105799190610fb6565b604051602081830303815290604052805190602001200361059957600191505b80806105a490610ffc565b915050610507565b8192505050919050565b6000604051905090565b600080fd5b600080fd5b600080fd5b600080fd5b6000601f19601f8301169050919050565b7f4e487b7100000000000000000000000000000000000000000000000000000000600052604160045260246000fd5b61061d826105d4565b810181811067ffffffffffffffff8211171561063c5761063b6105e5565b5b80604052505050565b600061064f6105b6565b905061065b8282610614565b919050565b600067ffffffffffffffff82111561067b5761067a6105e5565b5b610684826105d4565b9050602081019050919050565b82818337600083830152505050565b60006106b36106ae84610660565b610645565b9050828152602081018484840111156106cf576106ce6105cf565b5b6106da848285610691565b509392505050565b600082601f8301126106f7576106f66105ca565b5b81356107078482602086016106a0565b91505092915050565b600060ff82169050919050565b61072681610710565b811461073157600080fd5b50565b6000813590506107438161071d565b92915050565b600080604083850312156107605761075f6105c0565b5b600083013567ffffffffffffffff81111561077e5761077d6105c5565b5b61078a858286016106e2565b925050602061079b85828601610734565b9150509250929050565b6000602082840312156107bb576107ba6105c0565b5b600082013567ffffffffffffffff8111156107d9576107d86105c5565b5b6107e5848285016106e2565b91505092915050565b6107f781610710565b82525050565b600060208201905061081260008301846107ee565b92915050565b600073ffffffffffffffffffffffffffffffffffffffff82169050919050565b600061084382610818565b9050919050565b61085381610838565b82525050565b600060208201905061086e600083018461084a565b92915050565b600081519050919050565b600082825260208201905092915050565b6000819050602082019050919050565b600081519050919050565b600082825260208201905092915050565b60005b838110156108da5780820151818401526020810190506108bf565b60008484015250505050565b60006108f1826108a0565b6108fb81856108ab565b935061090b8185602086016108bc565b610914816105d4565b840191505092915050565b600061092b83836108e6565b905092915050565b6000602082019050919050565b600061094b82610874565b610955818561087f565b93508360208202850161096785610890565b8060005b858110156109a35784840389528151610984858261091f565b945061098f83610933565b925060208a0199505060018101905061096b565b50829750879550505050505092915050565b600060208201905081810360008301526109cf8184610940565b905092915050565b600082825260208201905092915050565b7f596f7520646f6e27742068617665207065726d697373696f6e732e0000000000600082015250565b6000610a1e601b836109d7565b9150610a29826109e8565b602082019050919050565b60006020820190508181036000830152610a4d81610a11565b9050919050565b6000819050919050565b610a6781610a54565b82525050565b6000604082019050610a826000830185610a5e565b610a8f60208301846107ee565b9392505050565b7f53747564656e7420646f65736e27742065786973747300000000000000000000600082015250565b6000610acc6016836109d7565b9150610ad782610a96565b602082019050919050565b60006020820190508181036000830152610afb81610abf565b9050919050565b7f53747564656e7420697320616c7265616479206f6e20746865206c6973740000600082015250565b6000610b38601e836109d7565b9150610b4382610b02565b602082019050919050565b60006020820190508181036000830152610b6781610b2b565b9050919050565b7f4e487b7100000000000000000000000000000000000000000000000000000000600052602260045260246000fd5b60006002820490506001821680610bb557607f821691505b602082108103610bc857610bc7610b6e565b5b50919050565b60008190508160005260206000209050919050565b60006020601f8301049050919050565b600082821b905092915050565b600060088302610c307fffffffffffffffffffffffffffffffffffffffffffffffffffffffffffffffff82610bf3565b610c3a8683610bf3565b95508019841693508086168417925050509392505050565b6000819050919050565b6000819050919050565b6000610c81610c7c610c7784610c52565b610c5c565b610c52565b9050919050565b6000819050919050565b610c9b83610c66565b610caf610ca782610c88565b848454610c00565b825550505050565b600090565b610cc4610cb7565b610ccf818484610c92565b505050565b5b81811015610cf357610ce8600082610cbc565b600181019050610cd5565b5050565b601f821115610d3857610d0981610bce565b610d1284610be3565b81016020851015610d21578190505b610d35610d2d85610be3565b830182610cd4565b50505b505050565b600082821c905092915050565b6000610d5b60001984600802610d3d565b1980831691505092915050565b6000610d748383610d4a565b9150826002028217905092915050565b610d8d826108a0565b67ffffffffffffffff811115610da657610da56105e5565b5b610db08254610b9d565b610dbb828285610cf7565b600060209050601f831160018114610dee5760008415610ddc578287015190505b610de68582610d68565b865550610e4e565b601f198416610dfc86610bce565b60005b82811015610e2457848901518255600182019150602085019450602081019050610dff565b86831015610e415784890151610e3d601f891682610d4a565b8355505b6001600288020188555050505b505050505050565b6000610e61826108a0565b610e6b81856109d7565b9350610e7b8185602086016108bc565b610e84816105d4565b840191505092915050565b60006020820190508181036000830152610ea98184610e56565b905092915050565b600081905092915050565b6000610ec7826108a0565b610ed18185610eb1565b9350610ee18185602086016108bc565b80840191505092915050565b6000610ef98284610ebc565b915081905092915050565b7f4e487b7100000000000000000000000000000000000000000000000000000000600052603260045260246000fd5b60008154610f4081610b9d565b610f4a8186610eb1565b94506001821660008114610f655760018114610f7a57610fad565b60ff1983168652811515820286019350610fad565b610f8385610bce565b60005b83811015610fa557815481890152600182019150602081019050610f86565b838801955050505b50505092915050565b6000610fc28284610f33565b915081905092915050565b7f4e487b7100000000000000000000000000000000000000000000000000000000600052601160045260246000fd5b600061100782610c52565b91507fffffffffffffffffffffffffffffffffffffffffffffffffffffffffffffffff820361103957611038610fcd565b5b60018201905091905056fea26469706673582212205133c846bc71a492f76e62e88f99d8383be8bd0ee6ed1bf9da3b0284b56fdb7164736f6c63430008120033",
					"opcodes": "PUSH1 0x80 PUSH1 0x40 MSTORE CALLVALUE DUP1 ISZERO PUSH2 0x10 JUMPI PUSH1 0x0 DUP1 REVERT JUMPDEST POP CALLER PUSH1 0x0 DUP1 PUSH2 0x100 EXP DUP2 SLOAD DUP2 PUSH20 0xFFFFFFFFFFFFFFFFFFFFFFFFFFFFFFFFFFFFFFFF MUL NOT AND SWAP1 DUP4 PUSH20 0xFFFFFFFFFFFFFFFFFFFFFFFFFFFFFFFFFFFFFFFF AND MUL OR SWAP1 SSTORE POP PUSH2 0x107A DUP1 PUSH2 0x60 PUSH1 0x0 CODECOPY PUSH1 0x0 RETURN INVALID PUSH1 0x80 PUSH1 0x40 MSTORE CALLVALUE DUP1 ISZERO PUSH2 0x10 JUMPI PUSH1 0x0 DUP1 REVERT JUMPDEST POP PUSH1 0x4 CALLDATASIZE LT PUSH2 0x57 JUMPI PUSH1 0x0 CALLDATALOAD PUSH1 0xE0 SHR DUP1 PUSH4 0x309E1BC5 EQ PUSH2 0x5C JUMPI DUP1 PUSH4 0x3590FB2A EQ PUSH2 0x78 JUMPI DUP1 PUSH4 0x35D2DB97 EQ PUSH2 0xA8 JUMPI DUP1 PUSH4 0x5113940D EQ PUSH2 0xC4 JUMPI DUP1 PUSH4 0xB7406849 EQ PUSH2 0xE2 JUMPI JUMPDEST PUSH1 0x0 DUP1 REVERT JUMPDEST PUSH2 0x76 PUSH1 0x4 DUP1 CALLDATASIZE SUB DUP2 ADD SWAP1 PUSH2 0x71 SWAP2 SWAP1 PUSH2 0x749 JUMP JUMPDEST PUSH2 0x100 JUMP JUMPDEST STOP JUMPDEST PUSH2 0x92 PUSH1 0x4 DUP1 CALLDATASIZE SUB DUP2 ADD SWAP1 PUSH2 0x8D SWAP2 SWAP1 PUSH2 0x7A5 JUMP JUMPDEST PUSH2 0x207 JUMP JUMPDEST PUSH1 0x40 MLOAD PUSH2 0x9F SWAP2 SWAP1 PUSH2 0x7FD JUMP JUMPDEST PUSH1 0x40 MLOAD DUP1 SWAP2 SUB SWAP1 RETURN JUMPDEST PUSH2 0xC2 PUSH1 0x4 DUP1 CALLDATASIZE SUB DUP2 ADD SWAP1 PUSH2 0xBD SWAP2 SWAP1 PUSH2 0x7A5 JUMP JUMPDEST PUSH2 0x2AA JUMP JUMPDEST STOP JUMPDEST PUSH2 0xCC PUSH2 0x3D0 JUMP JUMPDEST PUSH1 0x40 MLOAD PUSH2 0xD9 SWAP2 SWAP1 PUSH2 0x859 JUMP JUMPDEST PUSH1 0x40 MLOAD DUP1 SWAP2 SUB SWAP1 RETURN JUMPDEST PUSH2 0xEA PUSH2 0x3F4 JUMP JUMPDEST PUSH1 0x40 MLOAD PUSH2 0xF7 SWAP2 SWAP1 PUSH2 0x9B5 JUMP JUMPDEST PUSH1 0x40 MLOAD DUP1 SWAP2 SUB SWAP1 RETURN JUMPDEST CALLER DUP1 PUSH20 0xFFFFFFFFFFFFFFFFFFFFFFFFFFFFFFFFFFFFFFFF AND PUSH1 0x0 DUP1 SLOAD SWAP1 PUSH2 0x100 EXP SWAP1 DIV PUSH20 0xFFFFFFFFFFFFFFFFFFFFFFFFFFFFFFFFFFFFFFFF AND PUSH20 0xFFFFFFFFFFFFFFFFFFFFFFFFFFFFFFFFFFFFFFFF AND EQ PUSH2 0x18F JUMPI PUSH1 0x40 MLOAD PUSH32 0x8C379A000000000000000000000000000000000000000000000000000000000 DUP2 MSTORE PUSH1 0x4 ADD PUSH2 0x186 SWAP1 PUSH2 0xA34 JUMP JUMPDEST PUSH1 0x40 MLOAD DUP1 SWAP2 SUB SWAP1 REVERT JUMPDEST PUSH1 0x0 PUSH2 0x19A DUP5 PUSH2 0x4CD JUMP JUMPDEST SWAP1 POP DUP3 PUSH1 0x1 PUSH1 0x0 DUP4 DUP2 MSTORE PUSH1 0x20 ADD SWAP1 DUP2 MSTORE PUSH1 0x20 ADD PUSH1 0x0 KECCAK256 PUSH1 0x0 PUSH2 0x100 EXP DUP2 SLOAD DUP2 PUSH1 0xFF MUL NOT AND SWAP1 DUP4 PUSH1 0xFF AND MUL OR SWAP1 SSTORE POP PUSH32 0xA1F852C5E000FF00AC0025FE2E85EB386D5FF468A706A63D7D1BC9979AF42CB9 DUP2 DUP5 PUSH1 0x40 MLOAD PUSH2 0x1F9 SWAP3 SWAP2 SWAP1 PUSH2 0xA6D JUMP JUMPDEST PUSH1 0x40 MLOAD DUP1 SWAP2 SUB SWAP1 LOG1 POP POP POP POP JUMP JUMPDEST PUSH1 0x0 DUP1 PUSH2 0x213 DUP4 PUSH2 0x4CD JUMP JUMPDEST SWAP1 POP PUSH1 0x0 PUSH1 0x1 PUSH1 0x0 DUP4 DUP2 MSTORE PUSH1 0x20 ADD SWAP1 DUP2 MSTORE PUSH1 0x20 ADD PUSH1 0x0 KECCAK256 PUSH1 0x0 SWAP1 SLOAD SWAP1 PUSH2 0x100 EXP SWAP1 DIV PUSH1 0xFF AND PUSH1 0xFF AND SUB PUSH2 0x27B JUMPI PUSH1 0x40 MLOAD PUSH32 0x8C379A000000000000000000000000000000000000000000000000000000000 DUP2 MSTORE PUSH1 0x4 ADD PUSH2 0x272 SWAP1 PUSH2 0xAE2 JUMP JUMPDEST PUSH1 0x40 MLOAD DUP1 SWAP2 SUB SWAP1 REVERT JUMPDEST PUSH1 0x0 PUSH1 0x1 PUSH1 0x0 DUP4 DUP2 MSTORE PUSH1 0x20 ADD SWAP1 DUP2 MSTORE PUSH1 0x20 ADD PUSH1 0x0 KECCAK256 PUSH1 0x0 SWAP1 SLOAD SWAP1 PUSH2 0x100 EXP SWAP1 DIV PUSH1 0xFF AND SWAP1 POP DUP1 SWAP3 POP POP POP SWAP2 SWAP1 POP JUMP JUMPDEST PUSH1 0x0 PUSH1 0x1 PUSH1 0x0 PUSH2 0x2B9 DUP5 PUSH2 0x4CD JUMP JUMPDEST DUP2 MSTORE PUSH1 0x20 ADD SWAP1 DUP2 MSTORE PUSH1 0x20 ADD PUSH1 0x0 KECCAK256 PUSH1 0x0 SWAP1 SLOAD SWAP1 PUSH2 0x100 EXP SWAP1 DIV PUSH1 0xFF AND PUSH1 0xFF AND SUB PUSH2 0x318 JUMPI PUSH1 0x40 MLOAD PUSH32 0x8C379A000000000000000000000000000000000000000000000000000000000 DUP2 MSTORE PUSH1 0x4 ADD PUSH2 0x30F SWAP1 PUSH2 0xAE2 JUMP JUMPDEST PUSH1 0x40 MLOAD DUP1 SWAP2 SUB SWAP1 REVERT JUMPDEST PUSH2 0x321 DUP2 PUSH2 0x4FD JUMP JUMPDEST ISZERO PUSH2 0x361 JUMPI PUSH1 0x40 MLOAD PUSH32 0x8C379A000000000000000000000000000000000000000000000000000000000 DUP2 MSTORE PUSH1 0x4 ADD PUSH2 0x358 SWAP1 PUSH2 0xB4E JUMP JUMPDEST PUSH1 0x40 MLOAD DUP1 SWAP2 SUB SWAP1 REVERT JUMPDEST PUSH1 0x2 DUP2 SWAP1 DUP1 PUSH1 0x1 DUP2 SLOAD ADD DUP1 DUP3 SSTORE DUP1 SWAP2 POP POP PUSH1 0x1 SWAP1 SUB SWAP1 PUSH1 0x0 MSTORE PUSH1 0x20 PUSH1 0x0 KECCAK256 ADD PUSH1 0x0 SWAP1 SWAP2 SWAP1 SWAP2 SWAP1 SWAP2 POP SWAP1 DUP2 PUSH2 0x395 SWAP2 SWAP1 PUSH2 0xD84 JUMP JUMPDEST POP PUSH32 0xB2035F3CBC94C91FE4005D71D8E105625A4BC0F3E54C011ECEBF4EE4BAB0BC5F DUP2 PUSH1 0x40 MLOAD PUSH2 0x3C5 SWAP2 SWAP1 PUSH2 0xE8F JUMP JUMPDEST PUSH1 0x40 MLOAD DUP1 SWAP2 SUB SWAP1 LOG1 POP JUMP JUMPDEST PUSH1 0x0 DUP1 SLOAD SWAP1 PUSH2 0x100 EXP SWAP1 DIV PUSH20 0xFFFFFFFFFFFFFFFFFFFFFFFFFFFFFFFFFFFFFFFF AND DUP2 JUMP JUMPDEST PUSH1 0x60 PUSH1 0x2 DUP1 SLOAD DUP1 PUSH1 0x20 MUL PUSH1 0x20 ADD PUSH1 0x40 MLOAD SWAP1 DUP2 ADD PUSH1 0x40 MSTORE DUP1 SWAP3 SWAP2 SWAP1 DUP2 DUP2 MSTORE PUSH1 0x20 ADD PUSH1 0x0 SWAP1 JUMPDEST DUP3 DUP3 LT ISZERO PUSH2 0x4C4 JUMPI DUP4 DUP3 SWAP1 PUSH1 0x0 MSTORE PUSH1 0x20 PUSH1 0x0 KECCAK256 ADD DUP1 SLOAD PUSH2 0x437 SWAP1 PUSH2 0xB9D JUMP JUMPDEST DUP1 PUSH1 0x1F ADD PUSH1 0x20 DUP1 SWAP2 DIV MUL PUSH1 0x20 ADD PUSH1 0x40 MLOAD SWAP1 DUP2 ADD PUSH1 0x40 MSTORE DUP1 SWAP3 SWAP2 SWAP1 DUP2 DUP2 MSTORE PUSH1 0x20 ADD DUP3 DUP1 SLOAD PUSH2 0x463 SWAP1 PUSH2 0xB9D JUMP JUMPDEST DUP1 ISZERO PUSH2 0x4B0 JUMPI DUP1 PUSH1 0x1F LT PUSH2 0x485 JUMPI PUSH2 0x100 DUP1 DUP4 SLOAD DIV MUL DUP4 MSTORE SWAP2 PUSH1 0x20 ADD SWAP2 PUSH2 0x4B0 JUMP JUMPDEST DUP3 ADD SWAP2 SWAP1 PUSH1 0x0 MSTORE PUSH1 0x20 PUSH1 0x0 KECCAK256 SWAP1 JUMPDEST DUP2 SLOAD DUP2 MSTORE SWAP1 PUSH1 0x1 ADD SWAP1 PUSH1 0x20 ADD DUP1 DUP4 GT PUSH2 0x493 JUMPI DUP3 SWAP1 SUB PUSH1 0x1F AND DUP3 ADD SWAP2 JUMPDEST POP POP POP POP POP DUP2 MSTORE PUSH1 0x20 ADD SWAP1 PUSH1 0x1 ADD SWAP1 PUSH2 0x418 JUMP JUMPDEST POP POP POP POP SWAP1 POP SWAP1 JUMP JUMPDEST PUSH1 0x0 DUP2 PUSH1 0x40 MLOAD PUSH1 0x20 ADD PUSH2 0x4E0 SWAP2 SWAP1 PUSH2 0xEED JUMP JUMPDEST PUSH1 0x40 MLOAD PUSH1 0x20 DUP2 DUP4 SUB SUB DUP2 MSTORE SWAP1 PUSH1 0x40 MSTORE DUP1 MLOAD SWAP1 PUSH1 0x20 ADD KECCAK256 SWAP1 POP SWAP2 SWAP1 POP JUMP JUMPDEST PUSH1 0x0 DUP1 PUSH1 0x0 SWAP1 POP PUSH1 0x0 JUMPDEST PUSH1 0x2 DUP1 SLOAD SWAP1 POP DUP2 LT DUP1 ISZERO PUSH2 0x51F JUMPI POP PUSH1 0x0 ISZERO ISZERO DUP3 ISZERO ISZERO EQ JUMPDEST ISZERO PUSH2 0x5AC JUMPI DUP4 PUSH1 0x40 MLOAD PUSH1 0x20 ADD PUSH2 0x535 SWAP2 SWAP1 PUSH2 0xEED JUMP JUMPDEST PUSH1 0x40 MLOAD PUSH1 0x20 DUP2 DUP4 SUB SUB DUP2 MSTORE SWAP1 PUSH1 0x40 MSTORE DUP1 MLOAD SWAP1 PUSH1 0x20 ADD KECCAK256 PUSH1 0x2 DUP3 DUP2 SLOAD DUP2 LT PUSH2 0x55F JUMPI PUSH2 0x55E PUSH2 0xF04 JUMP JUMPDEST JUMPDEST SWAP1 PUSH1 0x0 MSTORE PUSH1 0x20 PUSH1 0x0 KECCAK256 ADD PUSH1 0x40 MLOAD PUSH1 0x20 ADD PUSH2 0x579 SWAP2 SWAP1 PUSH2 0xFB6 JUMP JUMPDEST PUSH1 0x40 MLOAD PUSH1 0x20 DUP2 DUP4 SUB SUB DUP2 MSTORE SWAP1 PUSH1 0x40 MSTORE DUP1 MLOAD SWAP1 PUSH1 0x20 ADD KECCAK256 SUB PUSH2 0x599 JUMPI PUSH1 0x1 SWAP2 POP JUMPDEST DUP1 DUP1 PUSH2 0x5A4 SWAP1 PUSH2 0xFFC JUMP JUMPDEST SWAP2 POP POP PUSH2 0x507 JUMP JUMPDEST DUP2 SWAP3 POP POP POP SWAP2 SWAP1 POP JUMP JUMPDEST PUSH1 0x0 PUSH1 0x40 MLOAD SWAP1 POP SWAP1 JUMP JUMPDEST PUSH1 0x0 DUP1 REVERT JUMPDEST PUSH1 0x0 DUP1 REVERT JUMPDEST PUSH1 0x0 DUP1 REVERT JUMPDEST PUSH1 0x0 DUP1 REVERT JUMPDEST PUSH1 0x0 PUSH1 0x1F NOT PUSH1 0x1F DUP4 ADD AND SWAP1 POP SWAP2 SWAP1 POP JUMP JUMPDEST PUSH32 0x4E487B7100000000000000000000000000000000000000000000000000000000 PUSH1 0x0 MSTORE PUSH1 0x41 PUSH1 0x4 MSTORE PUSH1 0x24 PUSH1 0x0 REVERT JUMPDEST PUSH2 0x61D DUP3 PUSH2 0x5D4 JUMP JUMPDEST DUP2 ADD DUP2 DUP2 LT PUSH8 0xFFFFFFFFFFFFFFFF DUP3 GT OR ISZERO PUSH2 0x63C JUMPI PUSH2 0x63B PUSH2 0x5E5 JUMP JUMPDEST JUMPDEST DUP1 PUSH1 0x40 MSTORE POP POP POP JUMP JUMPDEST PUSH1 0x0 PUSH2 0x64F PUSH2 0x5B6 JUMP JUMPDEST SWAP1 POP PUSH2 0x65B DUP3 DUP3 PUSH2 0x614 JUMP JUMPDEST SWAP2 SWAP1 POP JUMP JUMPDEST PUSH1 0x0 PUSH8 0xFFFFFFFFFFFFFFFF DUP3 GT ISZERO PUSH2 0x67B JUMPI PUSH2 0x67A PUSH2 0x5E5 JUMP JUMPDEST JUMPDEST PUSH2 0x684 DUP3 PUSH2 0x5D4 JUMP JUMPDEST SWAP1 POP PUSH1 0x20 DUP2 ADD SWAP1 POP SWAP2 SWAP1 POP JUMP JUMPDEST DUP3 DUP2 DUP4 CALLDATACOPY PUSH1 0x0 DUP4 DUP4 ADD MSTORE POP POP POP JUMP JUMPDEST PUSH1 0x0 PUSH2 0x6B3 PUSH2 0x6AE DUP5 PUSH2 0x660 JUMP JUMPDEST PUSH2 0x645 JUMP JUMPDEST SWAP1 POP DUP3 DUP2 MSTORE PUSH1 0x20 DUP2 ADD DUP5 DUP5 DUP5 ADD GT ISZERO PUSH2 0x6CF JUMPI PUSH2 0x6CE PUSH2 0x5CF JUMP JUMPDEST JUMPDEST PUSH2 0x6DA DUP5 DUP3 DUP6 PUSH2 0x691 JUMP JUMPDEST POP SWAP4 SWAP3 POP POP POP JUMP JUMPDEST PUSH1 0x0 DUP3 PUSH1 0x1F DUP4 ADD SLT PUSH2 0x6F7 JUMPI PUSH2 0x6F6 PUSH2 0x5CA JUMP JUMPDEST JUMPDEST DUP2 CALLDATALOAD PUSH2 0x707 DUP5 DUP3 PUSH1 0x20 DUP7 ADD PUSH2 0x6A0 JUMP JUMPDEST SWAP2 POP POP SWAP3 SWAP2 POP POP JUMP JUMPDEST PUSH1 0x0 PUSH1 0xFF DUP3 AND SWAP1 POP SWAP2 SWAP1 POP JUMP JUMPDEST PUSH2 0x726 DUP2 PUSH2 0x710 JUMP JUMPDEST DUP2 EQ PUSH2 0x731 JUMPI PUSH1 0x0 DUP1 REVERT JUMPDEST POP JUMP JUMPDEST PUSH1 0x0 DUP2 CALLDATALOAD SWAP1 POP PUSH2 0x743 DUP2 PUSH2 0x71D JUMP JUMPDEST SWAP3 SWAP2 POP POP JUMP JUMPDEST PUSH1 0x0 DUP1 PUSH1 0x40 DUP4 DUP6 SUB SLT ISZERO PUSH2 0x760 JUMPI PUSH2 0x75F PUSH2 0x5C0 JUMP JUMPDEST JUMPDEST PUSH1 0x0 DUP4 ADD CALLDATALOAD PUSH8 0xFFFFFFFFFFFFFFFF DUP2 GT ISZERO PUSH2 0x77E JUMPI PUSH2 0x77D PUSH2 0x5C5 JUMP JUMPDEST JUMPDEST PUSH2 0x78A DUP6 DUP3 DUP7 ADD PUSH2 0x6E2 JUMP JUMPDEST SWAP3 POP POP PUSH1 0x20 PUSH2 0x79B DUP6 DUP3 DUP7 ADD PUSH2 0x734 JUMP JUMPDEST SWAP2 POP POP SWAP3 POP SWAP3 SWAP1 POP JUMP JUMPDEST PUSH1 0x0 PUSH1 0x20 DUP3 DUP5 SUB SLT ISZERO PUSH2 0x7BB JUMPI PUSH2 0x7BA PUSH2 0x5C0 JUMP JUMPDEST JUMPDEST PUSH1 0x0 DUP3 ADD CALLDATALOAD PUSH8 0xFFFFFFFFFFFFFFFF DUP2 GT ISZERO PUSH2 0x7D9 JUMPI PUSH2 0x7D8 PUSH2 0x5C5 JUMP JUMPDEST JUMPDEST PUSH2 0x7E5 DUP5 DUP3 DUP6 ADD PUSH2 0x6E2 JUMP JUMPDEST SWAP2 POP POP SWAP3 SWAP2 POP POP JUMP JUMPDEST PUSH2 0x7F7 DUP2 PUSH2 0x710 JUMP JUMPDEST DUP3 MSTORE POP POP JUMP JUMPDEST PUSH1 0x0 PUSH1 0x20 DUP3 ADD SWAP1 POP PUSH2 0x812 PUSH1 0x0 DUP4 ADD DUP5 PUSH2 0x7EE JUMP JUMPDEST SWAP3 SWAP2 POP POP JUMP JUMPDEST PUSH1 0x0 PUSH20 0xFFFFFFFFFFFFFFFFFFFFFFFFFFFFFFFFFFFFFFFF DUP3 AND SWAP1 POP SWAP2 SWAP1 POP JUMP JUMPDEST PUSH1 0x0 PUSH2 0x843 DUP3 PUSH2 0x818 JUMP JUMPDEST SWAP1 POP SWAP2 SWAP1 POP JUMP JUMPDEST PUSH2 0x853 DUP2 PUSH2 0x838 JUMP JUMPDEST DUP3 MSTORE POP POP JUMP JUMPDEST PUSH1 0x0 PUSH1 0x20 DUP3 ADD SWAP1 POP PUSH2 0x86E PUSH1 0x0 DUP4 ADD DUP5 PUSH2 0x84A JUMP JUMPDEST SWAP3 SWAP2 POP POP JUMP JUMPDEST PUSH1 0x0 DUP2 MLOAD SWAP1 POP SWAP2 SWAP1 POP JUMP JUMPDEST PUSH1 0x0 DUP3 DUP3 MSTORE PUSH1 0x20 DUP3 ADD SWAP1 POP SWAP3 SWAP2 POP POP JUMP JUMPDEST PUSH1 0x0 DUP2 SWAP1 POP PUSH1 0x20 DUP3 ADD SWAP1 POP SWAP2 SWAP1 POP JUMP JUMPDEST PUSH1 0x0 DUP2 MLOAD SWAP1 POP SWAP2 SWAP1 POP JUMP JUMPDEST PUSH1 0x0 DUP3 DUP3 MSTORE PUSH1 0x20 DUP3 ADD SWAP1 POP SWAP3 SWAP2 POP POP JUMP JUMPDEST PUSH1 0x0 JUMPDEST DUP4 DUP2 LT ISZERO PUSH2 0x8DA JUMPI DUP1 DUP3 ADD MLOAD DUP2 DUP5 ADD MSTORE PUSH1 0x20 DUP2 ADD SWAP1 POP PUSH2 0x8BF JUMP JUMPDEST PUSH1 0x0 DUP5 DUP5 ADD MSTORE POP POP POP POP JUMP JUMPDEST PUSH1 0x0 PUSH2 0x8F1 DUP3 PUSH2 0x8A0 JUMP JUMPDEST PUSH2 0x8FB DUP2 DUP6 PUSH2 0x8AB JUMP JUMPDEST SWAP4 POP PUSH2 0x90B DUP2 DUP6 PUSH1 0x20 DUP7 ADD PUSH2 0x8BC JUMP JUMPDEST PUSH2 0x914 DUP2 PUSH2 0x5D4 JUMP JUMPDEST DUP5 ADD SWAP2 POP POP SWAP3 SWAP2 POP POP JUMP JUMPDEST PUSH1 0x0 PUSH2 0x92B DUP4 DUP4 PUSH2 0x8E6 JUMP JUMPDEST SWAP1 POP SWAP3 SWAP2 POP POP JUMP JUMPDEST PUSH1 0x0 PUSH1 0x20 DUP3 ADD SWAP1 POP SWAP2 SWAP1 POP JUMP JUMPDEST PUSH1 0x0 PUSH2 0x94B DUP3 PUSH2 0x874 JUMP JUMPDEST PUSH2 0x955 DUP2 DUP6 PUSH2 0x87F JUMP JUMPDEST SWAP4 POP DUP4 PUSH1 0x20 DUP3 MUL DUP6 ADD PUSH2 0x967 DUP6 PUSH2 0x890 JUMP JUMPDEST DUP1 PUSH1 0x0 JUMPDEST DUP6 DUP2 LT ISZERO PUSH2 0x9A3 JUMPI DUP5 DUP5 SUB DUP10 MSTORE DUP2 MLOAD PUSH2 0x984 DUP6 DUP3 PUSH2 0x91F JUMP JUMPDEST SWAP5 POP PUSH2 0x98F DUP4 PUSH2 0x933 JUMP JUMPDEST SWAP3 POP PUSH1 0x20 DUP11 ADD SWAP10 POP POP PUSH1 0x1 DUP2 ADD SWAP1 POP PUSH2 0x96B JUMP JUMPDEST POP DUP3 SWAP8 POP DUP8 SWAP6 POP POP POP POP POP POP SWAP3 SWAP2 POP POP JUMP JUMPDEST PUSH1 0x0 PUSH1 0x20 DUP3 ADD SWAP1 POP DUP2 DUP2 SUB PUSH1 0x0 DUP4 ADD MSTORE PUSH2 0x9CF DUP2 DUP5 PUSH2 0x940 JUMP JUMPDEST SWAP1 POP SWAP3 SWAP2 POP POP JUMP JUMPDEST PUSH1 0x0 DUP3 DUP3 MSTORE PUSH1 0x20 DUP3 ADD SWAP1 POP SWAP3 SWAP2 POP POP JUMP JUMPDEST PUSH32 0x596F7520646F6E27742068617665207065726D697373696F6E732E0000000000 PUSH1 0x0 DUP3 ADD MSTORE POP JUMP JUMPDEST PUSH1 0x0 PUSH2 0xA1E PUSH1 0x1B DUP4 PUSH2 0x9D7 JUMP JUMPDEST SWAP2 POP PUSH2 0xA29 DUP3 PUSH2 0x9E8 JUMP JUMPDEST PUSH1 0x20 DUP3 ADD SWAP1 POP SWAP2 SWAP1 POP JUMP JUMPDEST PUSH1 0x0 PUSH1 0x20 DUP3 ADD SWAP1 POP DUP2 DUP2 SUB PUSH1 0x0 DUP4 ADD MSTORE PUSH2 0xA4D DUP2 PUSH2 0xA11 JUMP JUMPDEST SWAP1 POP SWAP2 SWAP1 POP JUMP JUMPDEST PUSH1 0x0 DUP2 SWAP1 POP SWAP2 SWAP1 POP JUMP JUMPDEST PUSH2 0xA67 DUP2 PUSH2 0xA54 JUMP JUMPDEST DUP3 MSTORE POP POP JUMP JUMPDEST PUSH1 0x0 PUSH1 0x40 DUP3 ADD SWAP1 POP PUSH2 0xA82 PUSH1 0x0 DUP4 ADD DUP6 PUSH2 0xA5E JUMP JUMPDEST PUSH2 0xA8F PUSH1 0x20 DUP4 ADD DUP5 PUSH2 0x7EE JUMP JUMPDEST SWAP4 SWAP3 POP POP POP JUMP JUMPDEST PUSH32 0x53747564656E7420646F65736E27742065786973747300000000000000000000 PUSH1 0x0 DUP3 ADD MSTORE POP JUMP JUMPDEST PUSH1 0x0 PUSH2 0xACC PUSH1 0x16 DUP4 PUSH2 0x9D7 JUMP JUMPDEST SWAP2 POP PUSH2 0xAD7 DUP3 PUSH2 0xA96 JUMP JUMPDEST PUSH1 0x20 DUP3 ADD SWAP1 POP SWAP2 SWAP1 POP JUMP JUMPDEST PUSH1 0x0 PUSH1 0x20 DUP3 ADD SWAP1 POP DUP2 DUP2 SUB PUSH1 0x0 DUP4 ADD MSTORE PUSH2 0xAFB DUP2 PUSH2 0xABF JUMP JUMPDEST SWAP1 POP SWAP2 SWAP1 POP JUMP JUMPDEST PUSH32 0x53747564656E7420697320616C7265616479206F6E20746865206C6973740000 PUSH1 0x0 DUP3 ADD MSTORE POP JUMP JUMPDEST PUSH1 0x0 PUSH2 0xB38 PUSH1 0x1E DUP4 PUSH2 0x9D7 JUMP JUMPDEST SWAP2 POP PUSH2 0xB43 DUP3 PUSH2 0xB02 JUMP JUMPDEST PUSH1 0x20 DUP3 ADD SWAP1 POP SWAP2 SWAP1 POP JUMP JUMPDEST PUSH1 0x0 PUSH1 0x20 DUP3 ADD SWAP1 POP DUP2 DUP2 SUB PUSH1 0x0 DUP4 ADD MSTORE PUSH2 0xB67 DUP2 PUSH2 0xB2B JUMP JUMPDEST SWAP1 POP SWAP2 SWAP1 POP JUMP JUMPDEST PUSH32 0x4E487B7100000000000000000000000000000000000000000000000000000000 PUSH1 0x0 MSTORE PUSH1 0x22 PUSH1 0x4 MSTORE PUSH1 0x24 PUSH1 0x0 REVERT JUMPDEST PUSH1 0x0 PUSH1 0x2 DUP3 DIV SWAP1 POP PUSH1 0x1 DUP3 AND DUP1 PUSH2 0xBB5 JUMPI PUSH1 0x7F DUP3 AND SWAP2 POP JUMPDEST PUSH1 0x20 DUP3 LT DUP2 SUB PUSH2 0xBC8 JUMPI PUSH2 0xBC7 PUSH2 0xB6E JUMP JUMPDEST JUMPDEST POP SWAP2 SWAP1 POP JUMP JUMPDEST PUSH1 0x0 DUP2 SWAP1 POP DUP2 PUSH1 0x0 MSTORE PUSH1 0x20 PUSH1 0x0 KECCAK256 SWAP1 POP SWAP2 SWAP1 POP JUMP JUMPDEST PUSH1 0x0 PUSH1 0x20 PUSH1 0x1F DUP4 ADD DIV SWAP1 POP SWAP2 SWAP1 POP JUMP JUMPDEST PUSH1 0x0 DUP3 DUP3 SHL SWAP1 POP SWAP3 SWAP2 POP POP JUMP JUMPDEST PUSH1 0x0 PUSH1 0x8 DUP4 MUL PUSH2 0xC30 PUSH32 0xFFFFFFFFFFFFFFFFFFFFFFFFFFFFFFFFFFFFFFFFFFFFFFFFFFFFFFFFFFFFFFFF DUP3 PUSH2 0xBF3 JUMP JUMPDEST PUSH2 0xC3A DUP7 DUP4 PUSH2 0xBF3 JUMP JUMPDEST SWAP6 POP DUP1 NOT DUP5 AND SWAP4 POP DUP1 DUP7 AND DUP5 OR SWAP3 POP POP POP SWAP4 SWAP3 POP POP POP JUMP JUMPDEST PUSH1 0x0 DUP2 SWAP1 POP SWAP2 SWAP1 POP JUMP JUMPDEST PUSH1 0x0 DUP2 SWAP1 POP SWAP2 SWAP1 POP JUMP JUMPDEST PUSH1 0x0 PUSH2 0xC81 PUSH2 0xC7C PUSH2 0xC77 DUP5 PUSH2 0xC52 JUMP JUMPDEST PUSH2 0xC5C JUMP JUMPDEST PUSH2 0xC52 JUMP JUMPDEST SWAP1 POP SWAP2 SWAP1 POP JUMP JUMPDEST PUSH1 0x0 DUP2 SWAP1 POP SWAP2 SWAP1 POP JUMP JUMPDEST PUSH2 0xC9B DUP4 PUSH2 0xC66 JUMP JUMPDEST PUSH2 0xCAF PUSH2 0xCA7 DUP3 PUSH2 0xC88 JUMP JUMPDEST DUP5 DUP5 SLOAD PUSH2 0xC00 JUMP JUMPDEST DUP3 SSTORE POP POP POP POP JUMP JUMPDEST PUSH1 0x0 SWAP1 JUMP JUMPDEST PUSH2 0xCC4 PUSH2 0xCB7 JUMP JUMPDEST PUSH2 0xCCF DUP2 DUP5 DUP5 PUSH2 0xC92 JUMP JUMPDEST POP POP POP JUMP JUMPDEST JUMPDEST DUP2 DUP2 LT ISZERO PUSH2 0xCF3 JUMPI PUSH2 0xCE8 PUSH1 0x0 DUP3 PUSH2 0xCBC JUMP JUMPDEST PUSH1 0x1 DUP2 ADD SWAP1 POP PUSH2 0xCD5 JUMP JUMPDEST POP POP JUMP JUMPDEST PUSH1 0x1F DUP3 GT ISZERO PUSH2 0xD38 JUMPI PUSH2 0xD09 DUP2 PUSH2 0xBCE JUMP JUMPDEST PUSH2 0xD12 DUP5 PUSH2 0xBE3 JUMP JUMPDEST DUP2 ADD PUSH1 0x20 DUP6 LT ISZERO PUSH2 0xD21 JUMPI DUP2 SWAP1 POP JUMPDEST PUSH2 0xD35 PUSH2 0xD2D DUP6 PUSH2 0xBE3 JUMP JUMPDEST DUP4 ADD DUP3 PUSH2 0xCD4 JUMP JUMPDEST POP POP JUMPDEST POP POP POP JUMP JUMPDEST PUSH1 0x0 DUP3 DUP3 SHR SWAP1 POP SWAP3 SWAP2 POP POP JUMP JUMPDEST PUSH1 0x0 PUSH2 0xD5B PUSH1 0x0 NOT DUP5 PUSH1 0x8 MUL PUSH2 0xD3D JUMP JUMPDEST NOT DUP1 DUP4 AND SWAP2 POP POP SWAP3 SWAP2 POP POP JUMP JUMPDEST PUSH1 0x0 PUSH2 0xD74 DUP4 DUP4 PUSH2 0xD4A JUMP JUMPDEST SWAP2 POP DUP3 PUSH1 0x2 MUL DUP3 OR SWAP1 POP SWAP3 SWAP2 POP POP JUMP JUMPDEST PUSH2 0xD8D DUP3 PUSH2 0x8A0 JUMP JUMPDEST PUSH8 0xFFFFFFFFFFFFFFFF DUP2 GT ISZERO PUSH2 0xDA6 JUMPI PUSH2 0xDA5 PUSH2 0x5E5 JUMP JUMPDEST JUMPDEST PUSH2 0xDB0 DUP3 SLOAD PUSH2 0xB9D JUMP JUMPDEST PUSH2 0xDBB DUP3 DUP3 DUP6 PUSH2 0xCF7 JUMP JUMPDEST PUSH1 0x0 PUSH1 0x20 SWAP1 POP PUSH1 0x1F DUP4 GT PUSH1 0x1 DUP2 EQ PUSH2 0xDEE JUMPI PUSH1 0x0 DUP5 ISZERO PUSH2 0xDDC JUMPI DUP3 DUP8 ADD MLOAD SWAP1 POP JUMPDEST PUSH2 0xDE6 DUP6 DUP3 PUSH2 0xD68 JUMP JUMPDEST DUP7 SSTORE POP PUSH2 0xE4E JUMP JUMPDEST PUSH1 0x1F NOT DUP5 AND PUSH2 0xDFC DUP7 PUSH2 0xBCE JUMP JUMPDEST PUSH1 0x0 JUMPDEST DUP3 DUP2 LT ISZERO PUSH2 0xE24 JUMPI DUP5 DUP10 ADD MLOAD DUP3 SSTORE PUSH1 0x1 DUP3 ADD SWAP2 POP PUSH1 0x20 DUP6 ADD SWAP5 POP PUSH1 0x20 DUP2 ADD SWAP1 POP PUSH2 0xDFF JUMP JUMPDEST DUP7 DUP4 LT ISZERO PUSH2 0xE41 JUMPI DUP5 DUP10 ADD MLOAD PUSH2 0xE3D PUSH1 0x1F DUP10 AND DUP3 PUSH2 0xD4A JUMP JUMPDEST DUP4 SSTORE POP JUMPDEST PUSH1 0x1 PUSH1 0x2 DUP9 MUL ADD DUP9 SSTORE POP POP POP JUMPDEST POP POP POP POP POP POP JUMP JUMPDEST PUSH1 0x0 PUSH2 0xE61 DUP3 PUSH2 0x8A0 JUMP JUMPDEST PUSH2 0xE6B DUP2 DUP6 PUSH2 0x9D7 JUMP JUMPDEST SWAP4 POP PUSH2 0xE7B DUP2 DUP6 PUSH1 0x20 DUP7 ADD PUSH2 0x8BC JUMP JUMPDEST PUSH2 0xE84 DUP2 PUSH2 0x5D4 JUMP JUMPDEST DUP5 ADD SWAP2 POP POP SWAP3 SWAP2 POP POP JUMP JUMPDEST PUSH1 0x0 PUSH1 0x20 DUP3 ADD SWAP1 POP DUP2 DUP2 SUB PUSH1 0x0 DUP4 ADD MSTORE PUSH2 0xEA9 DUP2 DUP5 PUSH2 0xE56 JUMP JUMPDEST SWAP1 POP SWAP3 SWAP2 POP POP JUMP JUMPDEST PUSH1 0x0 DUP2 SWAP1 POP SWAP3 SWAP2 POP POP JUMP JUMPDEST PUSH1 0x0 PUSH2 0xEC7 DUP3 PUSH2 0x8A0 JUMP JUMPDEST PUSH2 0xED1 DUP2 DUP6 PUSH2 0xEB1 JUMP JUMPDEST SWAP4 POP PUSH2 0xEE1 DUP2 DUP6 PUSH1 0x20 DUP7 ADD PUSH2 0x8BC JUMP JUMPDEST DUP1 DUP5 ADD SWAP2 POP POP SWAP3 SWAP2 POP POP JUMP JUMPDEST PUSH1 0x0 PUSH2 0xEF9 DUP3 DUP5 PUSH2 0xEBC JUMP JUMPDEST SWAP2 POP DUP2 SWAP1 POP SWAP3 SWAP2 POP POP JUMP JUMPDEST PUSH32 0x4E487B7100000000000000000000000000000000000000000000000000000000 PUSH1 0x0 MSTORE PUSH1 0x32 PUSH1 0x4 MSTORE PUSH1 0x24 PUSH1 0x0 REVERT JUMPDEST PUSH1 0x0 DUP2 SLOAD PUSH2 0xF40 DUP2 PUSH2 0xB9D JUMP JUMPDEST PUSH2 0xF4A DUP2 DUP7 PUSH2 0xEB1 JUMP JUMPDEST SWAP5 POP PUSH1 0x1 DUP3 AND PUSH1 0x0 DUP2 EQ PUSH2 0xF65 JUMPI PUSH1 0x1 DUP2 EQ PUSH2 0xF7A JUMPI PUSH2 0xFAD JUMP JUMPDEST PUSH1 0xFF NOT DUP4 AND DUP7 MSTORE DUP2 ISZERO ISZERO DUP3 MUL DUP7 ADD SWAP4 POP PUSH2 0xFAD JUMP JUMPDEST PUSH2 0xF83 DUP6 PUSH2 0xBCE JUMP JUMPDEST PUSH1 0x0 JUMPDEST DUP4 DUP2 LT ISZERO PUSH2 0xFA5 JUMPI DUP2 SLOAD DUP2 DUP10 ADD MSTORE PUSH1 0x1 DUP3 ADD SWAP2 POP PUSH1 0x20 DUP2 ADD SWAP1 POP PUSH2 0xF86 JUMP JUMPDEST DUP4 DUP9 ADD SWAP6 POP POP POP JUMPDEST POP POP POP SWAP3 SWAP2 POP POP JUMP JUMPDEST PUSH1 0x0 PUSH2 0xFC2 DUP3 DUP5 PUSH2 0xF33 JUMP JUMPDEST SWAP2 POP DUP2 SWAP1 POP SWAP3 SWAP2 POP POP JUMP JUMPDEST PUSH32 0x4E487B7100000000000000000000000000000000000000000000000000000000 PUSH1 0x0 MSTORE PUSH1 0x11 PUSH1 0x4 MSTORE PUSH1 0x24 PUSH1 0x0 REVERT JUMPDEST PUSH1 0x0 PUSH2 0x1007 DUP3 PUSH2 0xC52 JUMP JUMPDEST SWAP2 POP PUSH32 0xFFFFFFFFFFFFFFFFFFFFFFFFFFFFFFFFFFFFFFFFFFFFFFFFFFFFFFFFFFFFFFFF DUP3 SUB PUSH2 0x1039 JUMPI PUSH2 0x1038 PUSH2 0xFCD JUMP JUMPDEST JUMPDEST PUSH1 0x1 DUP3 ADD SWAP1 POP SWAP2 SWAP1 POP JUMP INVALID LOG2 PUSH5 0x6970667358 0x22 SLT KECCAK256 MLOAD CALLER 0xC8 CHAINID 0xBC PUSH18 0xA492F76E62E88F99D8383BE8BD0EE6ED1BF9 0xDA EXTCODESIZE MUL DUP5 0xB5 PUSH16 0xDB7164736F6C63430008120033000000 "
				},
				"gasEstimates": {
					"creation": {
						"codeDepositCost": "843600",
						"executionCost": "25143",
						"totalCost": "868743"
					},
					"external": {
						"AskRevision(string)": "infinite",
						"CheckGrades(string)": "infinite",
						"Evaluate(string,uint8)": "infinite",
						"ShowAskedRevisions()": "infinite",
						"professor()": "2555"
					},
					"internal": {
						"getHashStudent(string memory)": "infinite",
						"isInRevisionList(string memory)": "infinite"
					}
				},
				"methodIdentifiers": {
					"AskRevision(string)": "35d2db97",
					"CheckGrades(string)": "3590fb2a",
					"Evaluate(string,uint8)": "309e1bc5",
					"ShowAskedRevisions()": "b7406849",
					"professor()": "5113940d"
				}
			},
			"storageLayout": {
				"storage": [
					{
						"astId": 3,
						"contract": "GRADES/grades.sol:grades",
						"label": "professor",
						"offset": 0,
						"slot": "0",
						"type": "t_address"
					},
					{
						"astId": 16,
						"contract": "GRADES/grades.sol:grades",
						"label": "Grades",
						"offset": 0,
						"slot": "1",
						"type": "t_mapping(t_bytes32,t_uint8)"
					},
					{
						"astId": 19,
						"contract": "GRADES/grades.sol:grades",
						"label": "revisions",
						"offset": 0,
						"slot": "2",
						"type": "t_array(t_string_storage)dyn_storage"
					}
				],
				"types": {
					"t_address": {
						"encoding": "inplace",
						"label": "address",
						"numberOfBytes": "20"
					},
					"t_array(t_string_storage)dyn_storage": {
						"base": "t_string_storage",
						"encoding": "dynamic_array",
						"label": "string[]",
						"numberOfBytes": "32"
					},
					"t_bytes32": {
						"encoding": "inplace",
						"label": "bytes32",
						"numberOfBytes": "32"
					},
					"t_mapping(t_bytes32,t_uint8)": {
						"encoding": "mapping",
						"key": "t_bytes32",
						"label": "mapping(bytes32 => uint8)",
						"numberOfBytes": "32",
						"value": "t_uint8"
					},
					"t_string_storage": {
						"encoding": "bytes",
						"label": "string",
						"numberOfBytes": "32"
					},
					"t_uint8": {
						"encoding": "inplace",
						"label": "uint8",
						"numberOfBytes": "1"
					}
				}
			},
			"userdoc": {
				"kind": "user",
				"methods": {},
				"version": 1
			}
		}
	}
}